{"contracts/AtomicNFT.sol":{"AtomicNFT":{"abi":[{"inputs":[{"internalType":"contract ICKRegistry","name":"_ckRegistry","type":"address"},{"internalType":"uint256","name":"_collectionSize","type":"uint256"},{"internalType":"uint256","name":"_mintFee","type":"uint256"},{"internalType":"address payable","name":"_mintFeeRecipient","type":"address"},{"internalType":"string","name":"initBaseURI","type":"string"},{"internalType":"string","name":"initContractURI","type":"string"}],"stateMutability":"nonpayable","type":"constructor"},{"anonymous":false,"inputs":[{"indexed":true,"internalType":"address","name":"owner","type":"address"},{"indexed":true,"internalType":"address","name":"approved","type":"address"},{"indexed":true,"internalType":"uint256","name":"tokenId","type":"uint256"}],"name":"Approval","type":"event"},{"anonymous":false,"inputs":[{"indexed":true,"internalType":"address","name":"owner","type":"address"},{"indexed":true,"internalType":"address","name":"operator","type":"address"},{"indexed":false,"internalType":"bool","name":"approved","type":"bool"}],"name":"ApprovalForAll","type":"event"},{"anonymous":false,"inputs":[{"indexed":true,"internalType":"address","name":"previousOwner","type":"address"},{"indexed":true,"internalType":"address","name":"newOwner","type":"address"}],"name":"OwnershipTransferred","type":"event"},{"anonymous":false,"inputs":[{"indexed":true,"internalType":"address","name":"from","type":"address"},{"indexed":true,"internalType":"address","name":"to","type":"address"},{"indexed":true,"internalType":"uint256","name":"tokenId","type":"uint256"}],"name":"Transfer","type":"event"},{"inputs":[{"internalType":"address","name":"to","type":"address"},{"internalType":"uint256","name":"tokenId","type":"uint256"}],"name":"approve","outputs":[],"stateMutability":"nonpayable","type":"function"},{"inputs":[{"internalType":"address","name":"owner","type":"address"}],"name":"balanceOf","outputs":[{"internalType":"uint256","name":"","type":"uint256"}],"stateMutability":"view","type":"function"},{"inputs":[],"name":"ckRegistry","outputs":[{"internalType":"contract ICKRegistry","name":"","type":"address"}],"stateMutability":"view","type":"function"},{"inputs":[],"name":"collectionSize","outputs":[{"internalType":"uint256","name":"","type":"uint256"}],"stateMutability":"view","type":"function"},{"inputs":[],"name":"contractURI","outputs":[{"internalType":"string","name":"","type":"string"}],"stateMutability":"view","type":"function"},{"inputs":[{"internalType":"uint256","name":"tokenId","type":"uint256"}],"name":"getApproved","outputs":[{"internalType":"address","name":"","type":"address"}],"stateMutability":"view","type":"function"},{"inputs":[{"internalType":"address","name":"owner","type":"address"},{"internalType":"address","name":"operator","type":"address"}],"name":"isApprovedForAll","outputs":[{"internalType":"bool","name":"","type":"bool"}],"stateMutability":"view","type":"function"},{"inputs":[{"internalType":"address","name":"addr","type":"address"}],"name":"isTrustedCK","outputs":[{"internalType":"bool","name":"","type":"bool"}],"stateMutability":"nonpayable","type":"function"},{"inputs":[],"name":"mint","outputs":[],"stateMutability":"payable","type":"function"},{"inputs":[],"name":"mintFee","outputs":[{"internalType":"uint256","name":"","type":"uint256"}],"stateMutability":"view","type":"function"},{"inputs":[],"name":"name","outputs":[{"internalType":"string","name":"","type":"string"}],"stateMutability":"view","type":"function"},{"inputs":[],"name":"openMintingEnabled","outputs":[{"internalType":"bool","name":"","type":"bool"}],"stateMutability":"view","type":"function"},{"inputs":[],"name":"owner","outputs":[{"internalType":"address","name":"","type":"address"}],"stateMutability":"view","type":"function"},{"inputs":[{"internalType":"address","name":"to","type":"address"}],"name":"ownerMint","outputs":[],"stateMutability":"nonpayable","type":"function"},{"inputs":[{"internalType":"uint256","name":"tokenId","type":"uint256"}],"name":"ownerOf","outputs":[{"internalType":"address","name":"","type":"address"}],"stateMutability":"view","type":"function"},{"inputs":[],"name":"renounceOwnership","outputs":[],"stateMutability":"nonpayable","type":"function"},{"inputs":[{"internalType":"address","name":"from","type":"address"},{"internalType":"address","name":"to","type":"address"},{"internalType":"uint256","name":"tokenId","type":"uint256"}],"name":"safeTransferFrom","outputs":[],"stateMutability":"nonpayable","type":"function"},{"inputs":[{"internalType":"address","name":"from","type":"address"},{"internalType":"address","name":"to","type":"address"},{"internalType":"uint256","name":"tokenId","type":"uint256"},{"internalType":"bytes","name":"data","type":"bytes"}],"name":"safeTransferFrom","outputs":[],"stateMutability":"nonpayable","type":"function"},{"inputs":[{"internalType":"address","name":"operator","type":"address"},{"internalType":"bool","name":"approved","type":"bool"}],"name":"setApprovalForAll","outputs":[],"stateMutability":"nonpayable","type":"function"},{"inputs":[{"internalType":"string","name":"newBaseURI","type":"string"}],"name":"setBaseURI","outputs":[],"stateMutability":"nonpayable","type":"function"},{"inputs":[{"internalType":"string","name":"newContractURI","type":"string"}],"name":"setContractURI","outputs":[],"stateMutability":"nonpayable","type":"function"},{"inputs":[{"internalType":"uint256","name":"newMintFee","type":"uint256"}],"name":"setMintFee","outputs":[],"stateMutability":"nonpayable","type":"function"},{"inputs":[{"internalType":"address payable","name":"newRecipient","type":"address"}],"name":"setMintFeeRecipient","outputs":[],"stateMutability":"nonpayable","type":"function"},{"inputs":[{"internalType":"bool","name":"enabled","type":"bool"}],"name":"setOpenMintingEnabled","outputs":[],"stateMutability":"nonpayable","type":"function"},{"inputs":[{"internalType":"uint256","name":"trustedBits","type":"uint256"}],"name":"setTrustedVerificationBits","outputs":[],"stateMutability":"nonpayable","type":"function"},{"inputs":[],"name":"sourceCodeAtomicNftPy","outputs":[{"internalType":"string","name":"","type":"string"}],"stateMutability":"view","type":"function"},{"inputs":[],"name":"sourceCodeCmapUtilsPy","outputs":[{"internalType":"string","name":"","type":"string"}],"stateMutability":"view","type":"function"},{"inputs":[{"internalType":"bytes4","name":"interfaceId","type":"bytes4"}],"name":"supportsInterface","outputs":[{"internalType":"bool","name":"","type":"bool"}],"stateMutability":"view","type":"function"},{"inputs":[],"name":"symbol","outputs":[{"internalType":"string","name":"","type":"string"}],"stateMutability":"view","type":"function"},{"inputs":[{"internalType":"uint256","name":"tokenId","type":"uint256"}],"name":"tokenURI","outputs":[{"internalType":"string","name":"","type":"string"}],"stateMutability":"view","type":"function"},{"inputs":[],"name":"totalSupply","outputs":[{"internalType":"uint256","name":"","type":"uint256"}],"stateMutability":"view","type":"function"},{"inputs":[{"internalType":"address","name":"from","type":"address"},{"internalType":"address","name":"to","type":"address"},{"internalType":"uint256","name":"tokenId","type":"uint256"}],"name":"transferFrom","outputs":[],"stateMutability":"nonpayable","type":"function"},{"inputs":[{"internalType":"address","name":"newOwner","type":"address"}],"name":"transferOwnership","outputs":[],"stateMutability":"nonpayable","type":"function"},{"inputs":[],"name":"trustedVerificationBits","outputs":[{"internalType":"uint256","name":"","type":"uint256"}],"stateMutability":"view","type":"function"}],"evm":{"bytecode":{"linkReferences":{},"object":"61090060405261081660c08181529062002d0060e0396007906200002490826200025f565b50604051806108c0016040528061089181526020016200351661089191396008906200005190826200025f565b506000600c55600e805460ff60a01b191690553480156200007157600080fd5b5060405162003da738038062003da78339810160408190526200009491620003f3565b6040518060400160405280600581526020016441746f6d7360d81b8152506040518060400160405280600381526020016241544d60e81b8152508160009081620000df91906200025f565b506001620000ee82826200025f565b5050506200010b620001056200016460201b60201c565b62000168565b6001600160a01b0386811660805260a0869052600d859055600e80546001600160a01b031916918516919091179055600b6200014883826200025f565b50600a6200015782826200025f565b505050505050506200049b565b3390565b600680546001600160a01b038381166001600160a01b0319831681179093556040519116919082907f8be0079c531659141344cd1fd0a4f28419497f9722a3daafe3b4186f6b6457e090600090a35050565b634e487b7160e01b600052604160045260246000fd5b600181811c90821680620001e557607f821691505b6020821081036200020657634e487b7160e01b600052602260045260246000fd5b50919050565b601f8211156200025a57600081815260208120601f850160051c81016020861015620002355750805b601f850160051c820191505b81811015620002565782815560010162000241565b5050505b505050565b81516001600160401b038111156200027b576200027b620001ba565b62000293816200028c8454620001d0565b846200020c565b602080601f831160018114620002cb5760008415620002b25750858301515b600019600386901b1c1916600185901b17855562000256565b600085815260208120601f198616915b82811015620002fc57888601518255948401946001909101908401620002db565b50858210156200031b5787850151600019600388901b60f8161c191681555b5050505050600190811b01905550565b6001600160a01b03811681146200034157600080fd5b50565b600082601f8301126200035657600080fd5b81516001600160401b0380821115620003735762000373620001ba565b604051601f8301601f19908116603f011681019082821181831017156200039e576200039e620001ba565b81604052838152602092508683858801011115620003bb57600080fd5b600091505b83821015620003df5785820183015181830184015290820190620003c0565b600093810190920192909252949350505050565b60008060008060008060c087890312156200040d57600080fd5b86516200041a816200032b565b80965050602087015194506040870151935060608701516200043c816200032b565b60808801519093506001600160401b03808211156200045a57600080fd5b620004688a838b0162000344565b935060a08901519150808211156200047f57600080fd5b506200048e89828a0162000344565b9150509295509295509295565b60805160a051612831620004cf600039600081816103c401526113980152600081816105030152610e9301526128316000f3fe6080604052600436106102195760003560e01c806366f3db071161011d578063a22cb465116100b0578063e8a3d4851161007f578063eddd0d9c11610064578063eddd0d9c14610645578063f2fde38b14610665578063f812d2301461068557600080fd5b8063e8a3d485146105da578063e985e9c5146105ef57600080fd5b8063a22cb4651461055a578063b88d4fde1461057a578063c87b56dd1461059a578063dc3a2e1d146105ba57600080fd5b80638da5cb5b116100ec5780638da5cb5b146104c657806390b68bee146104f1578063938e3d7b1461052557806395d89b411461054557600080fd5b806366f3db071461045c5780636e8658141461047157806370a0823114610491578063715018a6146104b157600080fd5b806323b872dd116101b057806345c0f5331161017f57806355f804b31161016457806355f804b31461040657806359f6f9b4146104265780636352211e1461043c57600080fd5b806345c0f533146103b2578063499f052c146103e657600080fd5b806323b872dd1461033d5780632901c02c1461035d5780633788fb6a1461037257806342842e0e1461039257600080fd5b80631249c58b116101ec5780631249c58b146102dc57806313966db5146102e457806318160ddd146103085780631e3bcc8e1461031d57600080fd5b806301ffc9a71461021e57806306fdde0314610253578063081812fc14610275578063095ea7b3146102ba575b600080fd5b34801561022a57600080fd5b5061023e610239366004612082565b6106b7565b60405190151581526020015b60405180910390f35b34801561025f57600080fd5b5061026861079c565b60405161024a919061210d565b34801561028157600080fd5b50610295610290366004612120565b61082e565b60405173ffffffffffffffffffffffffffffffffffffffff909116815260200161024a565b3480156102c657600080fd5b506102da6102d536600461215b565b610862565b005b6102da610a1e565b3480156102f057600080fd5b506102fa600d5481565b60405190815260200161024a565b34801561031457600080fd5b506102fa610bcf565b34801561032957600080fd5b506102da610338366004612187565b610bdf565b34801561034957600080fd5b506102da6103583660046121a4565b610bf3565b34801561036957600080fd5b50610268610c94565b34801561037e57600080fd5b506102da61038d366004612187565b610d22565b34801561039e57600080fd5b506102da6103ad3660046121a4565b610d71565b3480156103be57600080fd5b506102fa7f000000000000000000000000000000000000000000000000000000000000000081565b3480156103f257600080fd5b506102da610401366004612120565b610d8c565b34801561041257600080fd5b506102da6104213660046121e5565b610d99565b34801561043257600080fd5b506102fa600c5481565b34801561044857600080fd5b50610295610457366004612120565b610dae565b34801561046857600080fd5b50610268610e3a565b34801561047d57600080fd5b5061023e61048c366004612187565b610e47565b34801561049d57600080fd5b506102fa6104ac366004612187565b610f0c565b3480156104bd57600080fd5b506102da610fda565b3480156104d257600080fd5b5060065473ffffffffffffffffffffffffffffffffffffffff16610295565b3480156104fd57600080fd5b506102957f000000000000000000000000000000000000000000000000000000000000000081565b34801561053157600080fd5b506102da6105403660046121e5565b610fec565b34801561055157600080fd5b50610268611001565b34801561056657600080fd5b506102da61057536600461226c565b611010565b34801561058657600080fd5b506102da61059536600461231f565b61101f565b3480156105a657600080fd5b506102686105b5366004612120565b6110c7565b3480156105c657600080fd5b506102da6105d5366004612401565b61112e565b3480156105e657600080fd5b50610268611180565b3480156105fb57600080fd5b5061023e61060a36600461241c565b73ffffffffffffffffffffffffffffffffffffffff918216600090815260056020908152604080832093909416825291909152205460ff1690565b34801561065157600080fd5b506102da610660366004612120565b61118f565b34801561067157600080fd5b506102da610680366004612187565b61119c565b34801561069157600080fd5b50600e5461023e9074010000000000000000000000000000000000000000900460ff1681565b60007fffffffff0000000000000000000000000000000000000000000000000000000082167f80ac58cd00000000000000000000000000000000000000000000000000000000148061074a57507fffffffff0000000000000000000000000000000000000000000000000000000082167f5b5e139f00000000000000000000000000000000000000000000000000000000145b8061079657507f01ffc9a7000000000000000000000000000000000000000000000000000000007fffffffff000000000000000000000000000000000000000000000000000000008316145b92915050565b6060600080546107ab90612455565b80601f01602080910402602001604051908101604052809291908181526020018280546107d790612455565b80156108245780601f106107f957610100808354040283529160200191610824565b820191906000526020600020905b81548152906001019060200180831161080757829003601f168201915b5050505050905090565b600061083982611250565b5060009081526004602052604090205473ffffffffffffffffffffffffffffffffffffffff1690565b600061086d82610dae565b90508073ffffffffffffffffffffffffffffffffffffffff168373ffffffffffffffffffffffffffffffffffffffff160361092f576040517f08c379a000000000000000000000000000000000000000000000000000000000815260206004820152602160248201527f4552433732313a20617070726f76616c20746f2063757272656e74206f776e6560448201527f720000000000000000000000000000000000000000000000000000000000000060648201526084015b60405180910390fd5b3373ffffffffffffffffffffffffffffffffffffffff82161480610983575073ffffffffffffffffffffffffffffffffffffffff8116600090815260056020908152604080832033845290915290205460ff165b610a0f576040517f08c379a000000000000000000000000000000000000000000000000000000000815260206004820152603e60248201527f4552433732313a20617070726f76652063616c6c6572206973206e6f7420746f60448201527f6b656e206f776e6572206e6f7220617070726f76656420666f7220616c6c00006064820152608401610926565b610a1983836112db565b505050565b600d54341015610a8a576040517f08c379a000000000000000000000000000000000000000000000000000000000815260206004820152601860248201527f4d696e696d756d206d696e7420666565206e6f74206d657400000000000000006044820152606401610926565b600e5460405173ffffffffffffffffffffffffffffffffffffffff909116904780156108fc02916000818181858888f19350505050158015610ad0573d6000803e3d6000fd5b50600e5474010000000000000000000000000000000000000000900460ff16610b55576040517f08c379a000000000000000000000000000000000000000000000000000000000815260206004820152601860248201527f4f70656e206d696e74696e67206e6f7420656e61626c656400000000000000006044820152606401610926565b610b5e33610e47565b610bc4576040517f08c379a000000000000000000000000000000000000000000000000000000000815260206004820152601760248201527f4d696e746572206e65656473206120434b2070726f6f660000000000000000006044820152606401610926565b610bcd3361137b565b565b6000610bda60095490565b905090565b610be7611429565b610bf08161137b565b50565b610bfd33826114aa565b610c89576040517f08c379a000000000000000000000000000000000000000000000000000000000815260206004820152602e60248201527f4552433732313a2063616c6c6572206973206e6f7420746f6b656e206f776e6560448201527f72206e6f7220617070726f7665640000000000000000000000000000000000006064820152608401610926565b610a1983838361156a565b60078054610ca190612455565b80601f0160208091040260200160405190810160405280929190818152602001828054610ccd90612455565b8015610d1a5780601f10610cef57610100808354040283529160200191610d1a565b820191906000526020600020905b815481529060010190602001808311610cfd57829003601f168201915b505050505081565b610d2a611429565b600e80547fffffffffffffffffffffffff00000000000000000000000000000000000000001673ffffffffffffffffffffffffffffffffffffffff92909216919091179055565b610a198383836040518060200160405280600081525061101f565b610d94611429565b600c55565b610da1611429565b600b610a198284836124f6565b60008181526002602052604081205473ffffffffffffffffffffffffffffffffffffffff1680610796576040517f08c379a000000000000000000000000000000000000000000000000000000000815260206004820152601860248201527f4552433732313a20696e76616c696420746f6b656e20494400000000000000006044820152606401610926565b60088054610ca190612455565b600c546040517f080c98da00000000000000000000000000000000000000000000000000000000815273ffffffffffffffffffffffffffffffffffffffff8381166004830152600092917f00000000000000000000000000000000000000000000000000000000000000009091169063080c98da906024016020604051808303816000875af1158015610ede573d6000803e3d6000fd5b505050506040513d601f19601f82011682018060405250810190610f029190612611565b5116151592915050565b600073ffffffffffffffffffffffffffffffffffffffff8216610fb1576040517f08c379a000000000000000000000000000000000000000000000000000000000815260206004820152602960248201527f4552433732313a2061646472657373207a65726f206973206e6f74206120766160448201527f6c6964206f776e657200000000000000000000000000000000000000000000006064820152608401610926565b5073ffffffffffffffffffffffffffffffffffffffff1660009081526003602052604090205490565b610fe2611429565b610bcd60006117dc565b610ff4611429565b600a610a198284836124f6565b6060600180546107ab90612455565b61101b338383611853565b5050565b61102933836114aa565b6110b5576040517f08c379a000000000000000000000000000000000000000000000000000000000815260206004820152602e60248201527f4552433732313a2063616c6c6572206973206e6f7420746f6b656e206f776e6560448201527f72206e6f7220617070726f7665640000000000000000000000000000000000006064820152608401610926565b6110c184848484611980565b50505050565b60606110d282611250565b60006110dc611a23565b905060008151116110fc5760405180602001604052806000815250611127565b8061110684611a32565b604051602001611117929190612653565b6040516020818303038152906040525b9392505050565b611136611429565b600e805491151574010000000000000000000000000000000000000000027fffffffffffffffffffffff00ffffffffffffffffffffffffffffffffffffffff909216919091179055565b6060600a80546107ab90612455565b611197611429565b600d55565b6111a4611429565b73ffffffffffffffffffffffffffffffffffffffff8116611247576040517f08c379a000000000000000000000000000000000000000000000000000000000815260206004820152602660248201527f4f776e61626c653a206e6577206f776e657220697320746865207a65726f206160448201527f64647265737300000000000000000000000000000000000000000000000000006064820152608401610926565b610bf0816117dc565b60008181526002602052604090205473ffffffffffffffffffffffffffffffffffffffff16610bf0576040517f08c379a000000000000000000000000000000000000000000000000000000000815260206004820152601860248201527f4552433732313a20696e76616c696420746f6b656e20494400000000000000006044820152606401610926565b600081815260046020526040902080547fffffffffffffffffffffffff00000000000000000000000000000000000000001673ffffffffffffffffffffffffffffffffffffffff8416908117909155819061133582610dae565b73ffffffffffffffffffffffffffffffffffffffff167f8c5be1e5ebec7d5bd14f71427d1e84f3dd0314c0f7b2291e5b200ac8c7c3b92560405160405180910390a45050565b600061138660095490565b9050611396600980546001019055565b7f0000000000000000000000000000000000000000000000000000000000000000811061141f576040517f08c379a000000000000000000000000000000000000000000000000000000000815260206004820181905260248201527f416c6c2061746f6d6963204e4654732068617665206265656e206d696e7465646044820152606401610926565b61101b8282611b67565b60065473ffffffffffffffffffffffffffffffffffffffff163314610bcd576040517f08c379a000000000000000000000000000000000000000000000000000000000815260206004820181905260248201527f4f776e61626c653a2063616c6c6572206973206e6f7420746865206f776e65726044820152606401610926565b6000806114b683610dae565b90508073ffffffffffffffffffffffffffffffffffffffff168473ffffffffffffffffffffffffffffffffffffffff161480611524575073ffffffffffffffffffffffffffffffffffffffff80821660009081526005602090815260408083209388168352929052205460ff165b8061156257508373ffffffffffffffffffffffffffffffffffffffff1661154a8461082e565b73ffffffffffffffffffffffffffffffffffffffff16145b949350505050565b8273ffffffffffffffffffffffffffffffffffffffff1661158a82610dae565b73ffffffffffffffffffffffffffffffffffffffff161461162d576040517f08c379a000000000000000000000000000000000000000000000000000000000815260206004820152602560248201527f4552433732313a207472616e736665722066726f6d20696e636f72726563742060448201527f6f776e65720000000000000000000000000000000000000000000000000000006064820152608401610926565b73ffffffffffffffffffffffffffffffffffffffff82166116cf576040517f08c379a0000000000000000000000000000000000000000000000000000000008152602060048201526024808201527f4552433732313a207472616e7366657220746f20746865207a65726f2061646460448201527f72657373000000000000000000000000000000000000000000000000000000006064820152608401610926565b6116da838383611b81565b6116e56000826112db565b73ffffffffffffffffffffffffffffffffffffffff8316600090815260036020526040812080546001929061171b9084906126b1565b909155505073ffffffffffffffffffffffffffffffffffffffff821660009081526003602052604081208054600192906117569084906126c4565b909155505060008181526002602052604080822080547fffffffffffffffffffffffff00000000000000000000000000000000000000001673ffffffffffffffffffffffffffffffffffffffff86811691821790925591518493918716917fddf252ad1be2c89b69c2b068fc378daa952ba7f163c4a11628f55a4df523b3ef91a4505050565b6006805473ffffffffffffffffffffffffffffffffffffffff8381167fffffffffffffffffffffffff0000000000000000000000000000000000000000831681179093556040519116919082907f8be0079c531659141344cd1fd0a4f28419497f9722a3daafe3b4186f6b6457e090600090a35050565b8173ffffffffffffffffffffffffffffffffffffffff168373ffffffffffffffffffffffffffffffffffffffff16036118e8576040517f08c379a000000000000000000000000000000000000000000000000000000000815260206004820152601960248201527f4552433732313a20617070726f766520746f2063616c6c6572000000000000006044820152606401610926565b73ffffffffffffffffffffffffffffffffffffffff83811660008181526005602090815260408083209487168084529482529182902080547fffffffffffffffffffffffffffffffffffffffffffffffffffffffffffffff001686151590811790915591519182527f17307eab39ab6107e8899845ad3d59bd9653f200f220920489ca2b5937696c31910160405180910390a3505050565b61198b84848461156a565b61199784848484611bf0565b6110c1576040517f08c379a000000000000000000000000000000000000000000000000000000000815260206004820152603260248201527f4552433732313a207472616e7366657220746f206e6f6e20455243373231526560448201527f63656976657220696d706c656d656e74657200000000000000000000000000006064820152608401610926565b6060600b80546107ab90612455565b606081600003611a7557505060408051808201909152600181527f3000000000000000000000000000000000000000000000000000000000000000602082015290565b8160005b8115611a9f5780611a89816126d7565b9150611a989050600a8361273e565b9150611a79565b60008167ffffffffffffffff811115611aba57611aba6122a1565b6040519080825280601f01601f191660200182016040528015611ae4576020820181803683370190505b5090505b841561156257611af96001836126b1565b9150611b06600a86612752565b611b119060306126c4565b60f81b818381518110611b2657611b26612766565b60200101907effffffffffffffffffffffffffffffffffffffffffffffffffffffffffffff1916908160001a905350611b60600a8661273e565b9450611ae8565b61101b828260405180602001604052806000815250611de3565b611b8a82610e47565b610a19576040517f08c379a000000000000000000000000000000000000000000000000000000000815260206004820152601a60248201527f526563697069656e74206e65656473206120434b2070726f6f660000000000006044820152606401610926565b600073ffffffffffffffffffffffffffffffffffffffff84163b15611dd8576040517f150b7a0200000000000000000000000000000000000000000000000000000000815273ffffffffffffffffffffffffffffffffffffffff85169063150b7a0290611c67903390899088908890600401612795565b6020604051808303816000875af1925050508015611cc0575060408051601f3d9081017fffffffffffffffffffffffffffffffffffffffffffffffffffffffffffffffe0168201909252611cbd918101906127de565b60015b611d8d573d808015611cee576040519150601f19603f3d011682016040523d82523d6000602084013e611cf3565b606091505b508051600003611d85576040517f08c379a000000000000000000000000000000000000000000000000000000000815260206004820152603260248201527f4552433732313a207472616e7366657220746f206e6f6e20455243373231526560448201527f63656976657220696d706c656d656e74657200000000000000000000000000006064820152608401610926565b805181602001fd5b7fffffffff00000000000000000000000000000000000000000000000000000000167f150b7a0200000000000000000000000000000000000000000000000000000000149050611562565b506001949350505050565b611ded8383611e86565b611dfa6000848484611bf0565b610a19576040517f08c379a000000000000000000000000000000000000000000000000000000000815260206004820152603260248201527f4552433732313a207472616e7366657220746f206e6f6e20455243373231526560448201527f63656976657220696d706c656d656e74657200000000000000000000000000006064820152608401610926565b73ffffffffffffffffffffffffffffffffffffffff8216611f03576040517f08c379a000000000000000000000000000000000000000000000000000000000815260206004820181905260248201527f4552433732313a206d696e7420746f20746865207a65726f20616464726573736044820152606401610926565b60008181526002602052604090205473ffffffffffffffffffffffffffffffffffffffff1615611f8f576040517f08c379a000000000000000000000000000000000000000000000000000000000815260206004820152601c60248201527f4552433732313a20746f6b656e20616c7265616479206d696e746564000000006044820152606401610926565b611f9b60008383611b81565b73ffffffffffffffffffffffffffffffffffffffff82166000908152600360205260408120805460019290611fd19084906126c4565b909155505060008181526002602052604080822080547fffffffffffffffffffffffff00000000000000000000000000000000000000001673ffffffffffffffffffffffffffffffffffffffff861690811790915590518392907fddf252ad1be2c89b69c2b068fc378daa952ba7f163c4a11628f55a4df523b3ef908290a45050565b7fffffffff0000000000000000000000000000000000000000000000000000000081168114610bf057600080fd5b60006020828403121561209457600080fd5b813561112781612054565b60005b838110156120ba5781810151838201526020016120a2565b50506000910152565b600081518084526120db81602086016020860161209f565b601f017fffffffffffffffffffffffffffffffffffffffffffffffffffffffffffffffe0169290920160200192915050565b60208152600061112760208301846120c3565b60006020828403121561213257600080fd5b5035919050565b73ffffffffffffffffffffffffffffffffffffffff81168114610bf057600080fd5b6000806040838503121561216e57600080fd5b823561217981612139565b946020939093013593505050565b60006020828403121561219957600080fd5b813561112781612139565b6000806000606084860312156121b957600080fd5b83356121c481612139565b925060208401356121d481612139565b929592945050506040919091013590565b600080602083850312156121f857600080fd5b823567ffffffffffffffff8082111561221057600080fd5b818501915085601f83011261222457600080fd5b81358181111561223357600080fd5b86602082850101111561224557600080fd5b60209290920196919550909350505050565b8035801515811461226757600080fd5b919050565b6000806040838503121561227f57600080fd5b823561228a81612139565b915061229860208401612257565b90509250929050565b7f4e487b7100000000000000000000000000000000000000000000000000000000600052604160045260246000fd5b604051601f82017fffffffffffffffffffffffffffffffffffffffffffffffffffffffffffffffe016810167ffffffffffffffff81118282101715612317576123176122a1565b604052919050565b6000806000806080858703121561233557600080fd5b843561234081612139565b935060208581013561235181612139565b935060408601359250606086013567ffffffffffffffff8082111561237557600080fd5b818801915088601f83011261238957600080fd5b81358181111561239b5761239b6122a1565b6123cb847fffffffffffffffffffffffffffffffffffffffffffffffffffffffffffffffe0601f840116016122d0565b915080825289848285010111156123e157600080fd5b808484018584013760008482840101525080935050505092959194509250565b60006020828403121561241357600080fd5b61112782612257565b6000806040838503121561242f57600080fd5b823561243a81612139565b9150602083013561244a81612139565b809150509250929050565b600181811c9082168061246957607f821691505b6020821081036124a2577f4e487b7100000000000000000000000000000000000000000000000000000000600052602260045260246000fd5b50919050565b601f821115610a1957600081815260208120601f850160051c810160208610156124cf5750805b601f850160051c820191505b818110156124ee578281556001016124db565b505050505050565b67ffffffffffffffff83111561250e5761250e6122a1565b6125228361251c8354612455565b836124a8565b6000601f841160018114612574576000851561253e5750838201355b7fffffffffffffffffffffffffffffffffffffffffffffffffffffffffffffffff600387901b1c1916600186901b17835561260a565b6000838152602090207fffffffffffffffffffffffffffffffffffffffffffffffffffffffffffffffe0861690835b828110156125c357868501358255602094850194600190920191016125a3565b50868210156125fe577fffffffffffffffffffffffffffffffffffffffffffffffffffffffffffffffff60f88860031b161c19848701351681555b505060018560011b0183555b5050505050565b60006020828403121561262357600080fd5b6040516020810181811067ffffffffffffffff82111715612646576126466122a1565b6040529151825250919050565b6000835161266581846020880161209f565b83519083019061267981836020880161209f565b01949350505050565b7f4e487b7100000000000000000000000000000000000000000000000000000000600052601160045260246000fd5b8181038181111561079657610796612682565b8082018082111561079657610796612682565b60007fffffffffffffffffffffffffffffffffffffffffffffffffffffffffffffffff820361270857612708612682565b5060010190565b7f4e487b7100000000000000000000000000000000000000000000000000000000600052601260045260246000fd5b60008261274d5761274d61270f565b500490565b6000826127615761276161270f565b500690565b7f4e487b7100000000000000000000000000000000000000000000000000000000600052603260045260246000fd5b600073ffffffffffffffffffffffffffffffffffffffff8087168352808616602084015250836040830152608060608301526127d460808301846120c3565b9695505050505050565b6000602082840312156127f057600080fd5b81516111278161205456fea26469706673582212204f40ed468400b91a91cd1d186e7a0d8b62b7a21761909e470a77a5f5a229628464736f6c63430008110033696d706f72742072616e646f6d0a66726f6d2073616d696c612e66756e6374696f6e7320696d706f72742069735f76616c69645f636f6c6f722061732069735f76616c69645f636f6c6f720a0a6465662072616e645f636d6170286e6c6162656c732c20747970653d27627269676874272c20766572626f73653d54727565293a0a202020202222220a202020204372656174657320612072616e646f6d20636f6c6f726d617020746f206265207573656420746f6765746865722077697468206d6174706c6f746c69622e2055736566756c20666f72207365676d656e746174696f6e207461736b730a202020203a706172616d206e6c6162656c733a204e756d626572206f66206c6162656c73202873697a65206f6620636f6c6f726d6170290a202020203a706172616d20747970653a20276272696768742720666f72207374726f6e6720636f6c6f72732c2027736f66742720666f722070617374656c20636f6c6f72730a202020203a706172616d20766572626f73653a205072696e747320746865206e756d626572206f66206c6162656c7320616e642073686f77732074686520636f6c6f726d61702e2054727565206f722046616c73650a202020203a72657475726e3a20636f6c6f726d617020666f72206d6174706c6f746c69620a202020202222220a20202020696d706f727420636f6c6f727379730a20202020696d706f7274206e756d7079206173206e700a0a0a2020202069662074797065206e6f7420696e202827627269676874272c2027736f667427293a0a20202020202020207072696e74202827506c656173652063686f6f7365202262726967687422206f722022736f66742220666f72207479706527290a202020202020202072657475726e0a0a20202020696620766572626f73653a0a20202020202020207072696e7428274e756d626572206f66206c6162656c733a2027202b20737472286e6c6162656c7329290a0a20202020232047656e657261746520636f6c6f72206d617020666f722062726967687420636f6c6f72732c206261736564206f6e206873760a2020202069662074797065203d3d2027627269676874273a0a202020202020202072616e64485356636f6c6f7273203d205b286e702e72616e646f6d2e756e69666f726d286c6f773d302e302c20686967683d31292c0a20202020202020202020202020202020202020202020202020206e702e72616e646f6d2e756e69666f726d286c6f773d302e302c20686967683d31292c0a20202020202020202020202020202020202020202020202020206e702e72616e646f6d2e756e69666f726d286c6f773d302e302c20686967683d31292920666f72206920696e2072616e6765286e6c6162656c73295d0a0a20202020202020202320436f6e7665727420485356206c69737420746f205247420a202020202020202072616e64524742636f6c6f7273203d205b5d0a2020202020202020666f7220485356636f6c6f7220696e2072616e64485356636f6c6f72733a0a20202020202020202020202072616e64524742636f6c6f72203d20636f6c6f727379732e6873765f746f5f72676228485356636f6c6f725b305d2c20485356636f6c6f725b315d2c20485356636f6c6f725b325d290a20202020202020202020202069662069735f76616c69645f636f6c6f722872616e64524742636f6c6f72293a0a2020202020202020202020202020202072616e64524742636f6c6f72732e617070656e642872616e64524742636f6c6f72290a0a0a20202020232047656e657261746520736f66742070617374656c20636f6c6f72732c206279206c696d6974696e67207468652052474220737065637472756d0a2020202069662074797065203d3d2027736f6674273a0a20202020202020206c6f77203d20302e360a202020202020202068696768203d20302e39350a202020202020202072616e64524742636f6c6f7273203d206c6973742866696c7465722869735f76616c69645f636f6c6f722c205b286e702e72616e646f6d2e756e69666f726d286c6f773d6c6f772c20686967683d6869676829202a2a20322c0a20202020202020202020202020202020202020202020202020206e702e72616e646f6d2e756e69666f726d286c6f773d6c6f772c20686967683d6869676829202a2a20322c0a20202020202020202020202020202020202020202020202020206e702e72616e646f6d2e756e69666f726d286c6f773d6c6f772c20686967683d6869676829202a2a20322920666f72206920696e2072616e6765286e6c6162656c73295d29290a0a0a20202020666f7220636f6c6f7220696e2072616e64524742636f6c6f72733a0a20202020202020206966206c656e28636f6c6f722920213d20333a0a20202020202020202020202072616e64524742636f6c6f72732e72656d6f766528636f6c6f72290a0a2020202072657475726e2072616e64524742636f6c6f72730a0a0a646566206765745f72616e646f6d5f636d6170286c656e6774683d3230293a0a202020206e65775f636d6170203d2072616e645f636d617028696e74286c656e6774682f32292c20747970653d72616e646f6d2e63686f696365285b27736f6674272c2027627269676874275d29290a202020206e65775f636d6170203d206e65775f636d6170202b2072616e645f636d617028696e74286c656e6774682f35292c20747970653d72616e646f6d2e63686f696365285b27736f6674272c2027627269676874275d29290a2020202072616e646f6d2e73687566666c65286e65775f636d6170290a2020202072657475726e206e65775f636d61700a66726f6d2050494c20696d706f727420496d6167650a696d706f7274206d6174682c2072616e646f6d0a66726f6d2073616d696c6120696d706f72742047656e65726174697665496d6167652c2050726f6a656374696f6e0a696d706f7274206f730a66726f6d20636d61705f7574696c7320696d706f7274206765745f72616e646f6d5f636d61700a66726f6d20636f6e7374616e747320696d706f727420454c454d454e54530a0a0a64656620663128782c2079293a0a20202020726573756c74203d2072616e646f6d2e756e69666f726d282d312c3129202a20782a2a3220202d206d6174682e73696e28792a2a3229202b2061627328792d78290a2020202072657475726e20726573756c740a0a64656620663228782c2079293a0a20202020726573756c74203d2072616e646f6d2e756e69666f726d282d312c3129202a20792a2a33202d206d6174682e636f7328782a2a3229202b20322a780a2020202072657475726e20726573756c740a0a0a646566206765745f696d6167652873656564732c20736176655f746f5f666f6c6465722c20636f6c6f7273293a0a202020202222222046756c6c792064657465726d696e69737469632066756e6374696f6e20666f7220726570726f64756369626c792067656e65726174696e6720612073696e676c650a202020202020202041746f6d6963204e465420504e472066726f6d2061206c697374206f662072616e646f6d2073656564732e202222220a202020206f732e73797374656d28226d6b646972202d702025732220252028736176655f746f5f666f6c64657229290a202020206f70656e282225732f646174612220252028736176655f746f5f666f6c646572292c20277727292e7772697465282225735c6e25732220252028737472287365656473292c2073747228636f6c6f72732929290a20202020666f7220736565645f696e64657820696e2072616e6765286c656e28736565647329293a0a2020202020202020232047656e657261746520636f6d706f6e656e7420696d616765732c206f6e6520666f72206561636820736565642e2053617665206561636820636f6d706f6e656e74206c6f63616c6c792e0a202020202020202073656564203d2073656564735b736565645f696e6465785d0a202020202020202067203d2047656e65726174697665496d6167652866312c206632290a2020202020202020672e67656e657261746528736565643d73656564290a20202020202020207072696e7428225573696e67222c20636f6c6f72735b736565645f696e6465785d290a2020202020202020672e706c6f742870726f6a656374696f6e3d50726f6a656374696f6e2e504f4c41522c20636f6c6f723d636f6c6f72735b736565645f696e6465785d2c206267636f6c6f723d227472616e73706172656e7422290a2020202020202020672e736176655f696d616765282725732f736565645f25645f25732e706e672720252028736176655f746f5f666f6c6465722c20736565645f696e6465782c2073656564292c2064657074683d36290a0a2020202023204d6572676520636f6d706f6e656e747320696e746f20612073696e676c65207472616e73706172656e7420504e470a202020206261636b67726f756e64203d20496d6167652e6f70656e282725732f736565645f305f25732e706e672720252028736176655f746f5f666f6c6465722c2073656564735b305d29290a20202020666f7220736565645f696e64657820696e2072616e676528312c206c656e28736565647329293a0a2020202020202020666f726567726f756e64203d20496d6167652e6f70656e282225732f736565645f25645f25732e706e672220252028736176655f746f5f666f6c6465722c20736565645f696e6465782c2073656564735b736565645f696e6465785d29290a20202020202020206261636b67726f756e642e706173746528666f726567726f756e642c2028302c2030292c20666f726567726f756e64290a202020206261636b67726f756e642e73617665282225732f66696e616c5f6e66742e706e672220252028736176655f746f5f666f6c64657229290a202020207072696e742822536176656420636f6d706c657465204e465420746f2025732220252028736176655f746f5f666f6c64657229290a0a0a232068617264636f6465642073656564203d2064657465726d696e69737469632067656e65726174696f6e0a6d61696e5f72616e646f6d203d2072616e646f6d2e52616e646f6d283639343230290a232067656e657261746520316b20636f6e7472616374730a666f72206e66745f6e756d20696e2072616e676528302c20323030293a0a202020206465707468203d20696e74286d61696e5f72616e646f6d2e72616e646f6d2829202a203829202b20310a202020207072696e7428224465707468222c206465707468290a202020207365656473203d205b5d0a2020202063686f73656e5f636f6c6f7273203d205b5d0a20202020666f72206920696e2072616e676528302c206465707468293a0a202020202020202073656564203d20696e74283130303030303030303030303030303030303030303030303030303030303030303030303030303030303030303030202a206d61696e5f72616e646f6d2e72616e646f6d2829290a202020202020202073656564732e617070656e642873656564290a202020202020202063686f73656e5f636f6c6f72732e617070656e642872616e646f6d2e52616e646f6d2873656564292e63686f69636528454c454d454e545329290a20202020202020206d61696e5f72616e646f6d203d2072616e646f6d2e52616e646f6d2873656564290a202020206765745f696d6167652873656564732c20226e6674732f61746f6d69635f6e6674735f256422202520286e66745f6e756d292c2063686f73656e5f636f6c6f7273290a0a202020207072696e74282246696e6973686564204e4654222c206e66745f6e756d290a","opcodes":"PUSH2 0x900 PUSH1 0x40 MSTORE PUSH2 0x816 PUSH1 0xC0 DUP2 DUP2 MSTORE SWAP1 PUSH3 0x2D00 PUSH1 0xE0 CODECOPY PUSH1 0x7 SWAP1 PUSH3 0x24 SWAP1 DUP3 PUSH3 0x25F JUMP JUMPDEST POP PUSH1 0x40 MLOAD DUP1 PUSH2 0x8C0 ADD PUSH1 0x40 MSTORE DUP1 PUSH2 0x891 DUP2 MSTORE PUSH1 0x20 ADD PUSH3 0x3516 PUSH2 0x891 SWAP2 CODECOPY PUSH1 0x8 SWAP1 PUSH3 0x51 SWAP1 DUP3 PUSH3 0x25F JUMP JUMPDEST POP PUSH1 0x0 PUSH1 0xC SSTORE PUSH1 0xE DUP1 SLOAD PUSH1 0xFF PUSH1 0xA0 SHL NOT AND SWAP1 SSTORE CALLVALUE DUP1 ISZERO PUSH3 0x71 JUMPI PUSH1 0x0 DUP1 REVERT JUMPDEST POP PUSH1 0x40 MLOAD PUSH3 0x3DA7 CODESIZE SUB DUP1 PUSH3 0x3DA7 DUP4 CODECOPY DUP2 ADD PUSH1 0x40 DUP2 SWAP1 MSTORE PUSH3 0x94 SWAP2 PUSH3 0x3F3 JUMP JUMPDEST PUSH1 0x40 MLOAD DUP1 PUSH1 0x40 ADD PUSH1 0x40 MSTORE DUP1 PUSH1 0x5 DUP2 MSTORE PUSH1 0x20 ADD PUSH5 0x41746F6D73 PUSH1 0xD8 SHL DUP2 MSTORE POP PUSH1 0x40 MLOAD DUP1 PUSH1 0x40 ADD PUSH1 0x40 MSTORE DUP1 PUSH1 0x3 DUP2 MSTORE PUSH1 0x20 ADD PUSH3 0x41544D PUSH1 0xE8 SHL DUP2 MSTORE POP DUP2 PUSH1 0x0 SWAP1 DUP2 PUSH3 0xDF SWAP2 SWAP1 PUSH3 0x25F JUMP JUMPDEST POP PUSH1 0x1 PUSH3 0xEE DUP3 DUP3 PUSH3 0x25F JUMP JUMPDEST POP POP POP PUSH3 0x10B PUSH3 0x105 PUSH3 0x164 PUSH1 0x20 SHL PUSH1 0x20 SHR JUMP JUMPDEST PUSH3 0x168 JUMP JUMPDEST PUSH1 0x1 PUSH1 0x1 PUSH1 0xA0 SHL SUB DUP7 DUP2 AND PUSH1 0x80 MSTORE PUSH1 0xA0 DUP7 SWAP1 MSTORE PUSH1 0xD DUP6 SWAP1 SSTORE PUSH1 0xE DUP1 SLOAD PUSH1 0x1 PUSH1 0x1 PUSH1 0xA0 SHL SUB NOT AND SWAP2 DUP6 AND SWAP2 SWAP1 SWAP2 OR SWAP1 SSTORE PUSH1 0xB PUSH3 0x148 DUP4 DUP3 PUSH3 0x25F JUMP JUMPDEST POP PUSH1 0xA PUSH3 0x157 DUP3 DUP3 PUSH3 0x25F JUMP JUMPDEST POP POP POP POP POP POP POP PUSH3 0x49B JUMP JUMPDEST CALLER SWAP1 JUMP JUMPDEST PUSH1 0x6 DUP1 SLOAD PUSH1 0x1 PUSH1 0x1 PUSH1 0xA0 SHL SUB DUP4 DUP2 AND PUSH1 0x1 PUSH1 0x1 PUSH1 0xA0 SHL SUB NOT DUP4 AND DUP2 OR SWAP1 SWAP4 SSTORE PUSH1 0x40 MLOAD SWAP2 AND SWAP2 SWAP1 DUP3 SWAP1 PUSH32 0x8BE0079C531659141344CD1FD0A4F28419497F9722A3DAAFE3B4186F6B6457E0 SWAP1 PUSH1 0x0 SWAP1 LOG3 POP POP JUMP JUMPDEST PUSH4 0x4E487B71 PUSH1 0xE0 SHL PUSH1 0x0 MSTORE PUSH1 0x41 PUSH1 0x4 MSTORE PUSH1 0x24 PUSH1 0x0 REVERT JUMPDEST PUSH1 0x1 DUP2 DUP2 SHR SWAP1 DUP3 AND DUP1 PUSH3 0x1E5 JUMPI PUSH1 0x7F DUP3 AND SWAP2 POP JUMPDEST PUSH1 0x20 DUP3 LT DUP2 SUB PUSH3 0x206 JUMPI PUSH4 0x4E487B71 PUSH1 0xE0 SHL PUSH1 0x0 MSTORE PUSH1 0x22 PUSH1 0x4 MSTORE PUSH1 0x24 PUSH1 0x0 REVERT JUMPDEST POP SWAP2 SWAP1 POP JUMP JUMPDEST PUSH1 0x1F DUP3 GT ISZERO PUSH3 0x25A JUMPI PUSH1 0x0 DUP2 DUP2 MSTORE PUSH1 0x20 DUP2 KECCAK256 PUSH1 0x1F DUP6 ADD PUSH1 0x5 SHR DUP2 ADD PUSH1 0x20 DUP7 LT ISZERO PUSH3 0x235 JUMPI POP DUP1 JUMPDEST PUSH1 0x1F DUP6 ADD PUSH1 0x5 SHR DUP3 ADD SWAP2 POP JUMPDEST DUP2 DUP2 LT ISZERO PUSH3 0x256 JUMPI DUP3 DUP2 SSTORE PUSH1 0x1 ADD PUSH3 0x241 JUMP JUMPDEST POP POP POP JUMPDEST POP POP POP JUMP JUMPDEST DUP2 MLOAD PUSH1 0x1 PUSH1 0x1 PUSH1 0x40 SHL SUB DUP2 GT ISZERO PUSH3 0x27B JUMPI PUSH3 0x27B PUSH3 0x1BA JUMP JUMPDEST PUSH3 0x293 DUP2 PUSH3 0x28C DUP5 SLOAD PUSH3 0x1D0 JUMP JUMPDEST DUP5 PUSH3 0x20C JUMP JUMPDEST PUSH1 0x20 DUP1 PUSH1 0x1F DUP4 GT PUSH1 0x1 DUP2 EQ PUSH3 0x2CB JUMPI PUSH1 0x0 DUP5 ISZERO PUSH3 0x2B2 JUMPI POP DUP6 DUP4 ADD MLOAD JUMPDEST PUSH1 0x0 NOT PUSH1 0x3 DUP7 SWAP1 SHL SHR NOT AND PUSH1 0x1 DUP6 SWAP1 SHL OR DUP6 SSTORE PUSH3 0x256 JUMP JUMPDEST PUSH1 0x0 DUP6 DUP2 MSTORE PUSH1 0x20 DUP2 KECCAK256 PUSH1 0x1F NOT DUP7 AND SWAP2 JUMPDEST DUP3 DUP2 LT ISZERO PUSH3 0x2FC JUMPI DUP9 DUP7 ADD MLOAD DUP3 SSTORE SWAP5 DUP5 ADD SWAP5 PUSH1 0x1 SWAP1 SWAP2 ADD SWAP1 DUP5 ADD PUSH3 0x2DB JUMP JUMPDEST POP DUP6 DUP3 LT ISZERO PUSH3 0x31B JUMPI DUP8 DUP6 ADD MLOAD PUSH1 0x0 NOT PUSH1 0x3 DUP9 SWAP1 SHL PUSH1 0xF8 AND SHR NOT AND DUP2 SSTORE JUMPDEST POP POP POP POP POP PUSH1 0x1 SWAP1 DUP2 SHL ADD SWAP1 SSTORE POP JUMP JUMPDEST PUSH1 0x1 PUSH1 0x1 PUSH1 0xA0 SHL SUB DUP2 AND DUP2 EQ PUSH3 0x341 JUMPI PUSH1 0x0 DUP1 REVERT JUMPDEST POP JUMP JUMPDEST PUSH1 0x0 DUP3 PUSH1 0x1F DUP4 ADD SLT PUSH3 0x356 JUMPI PUSH1 0x0 DUP1 REVERT JUMPDEST DUP2 MLOAD PUSH1 0x1 PUSH1 0x1 PUSH1 0x40 SHL SUB DUP1 DUP3 GT ISZERO PUSH3 0x373 JUMPI PUSH3 0x373 PUSH3 0x1BA JUMP JUMPDEST PUSH1 0x40 MLOAD PUSH1 0x1F DUP4 ADD PUSH1 0x1F NOT SWAP1 DUP2 AND PUSH1 0x3F ADD AND DUP2 ADD SWAP1 DUP3 DUP3 GT DUP2 DUP4 LT OR ISZERO PUSH3 0x39E JUMPI PUSH3 0x39E PUSH3 0x1BA JUMP JUMPDEST DUP2 PUSH1 0x40 MSTORE DUP4 DUP2 MSTORE PUSH1 0x20 SWAP3 POP DUP7 DUP4 DUP6 DUP9 ADD ADD GT ISZERO PUSH3 0x3BB JUMPI PUSH1 0x0 DUP1 REVERT JUMPDEST PUSH1 0x0 SWAP2 POP JUMPDEST DUP4 DUP3 LT ISZERO PUSH3 0x3DF JUMPI DUP6 DUP3 ADD DUP4 ADD MLOAD DUP2 DUP4 ADD DUP5 ADD MSTORE SWAP1 DUP3 ADD SWAP1 PUSH3 0x3C0 JUMP JUMPDEST PUSH1 0x0 SWAP4 DUP2 ADD SWAP1 SWAP3 ADD SWAP3 SWAP1 SWAP3 MSTORE SWAP5 SWAP4 POP POP POP POP JUMP JUMPDEST PUSH1 0x0 DUP1 PUSH1 0x0 DUP1 PUSH1 0x0 DUP1 PUSH1 0xC0 DUP8 DUP10 SUB SLT ISZERO PUSH3 0x40D JUMPI PUSH1 0x0 DUP1 REVERT JUMPDEST DUP7 MLOAD PUSH3 0x41A DUP2 PUSH3 0x32B JUMP JUMPDEST DUP1 SWAP7 POP POP PUSH1 0x20 DUP8 ADD MLOAD SWAP5 POP PUSH1 0x40 DUP8 ADD MLOAD SWAP4 POP PUSH1 0x60 DUP8 ADD MLOAD PUSH3 0x43C DUP2 PUSH3 0x32B JUMP JUMPDEST PUSH1 0x80 DUP9 ADD MLOAD SWAP1 SWAP4 POP PUSH1 0x1 PUSH1 0x1 PUSH1 0x40 SHL SUB DUP1 DUP3 GT ISZERO PUSH3 0x45A JUMPI PUSH1 0x0 DUP1 REVERT JUMPDEST PUSH3 0x468 DUP11 DUP4 DUP12 ADD PUSH3 0x344 JUMP JUMPDEST SWAP4 POP PUSH1 0xA0 DUP10 ADD MLOAD SWAP2 POP DUP1 DUP3 GT ISZERO PUSH3 0x47F JUMPI PUSH1 0x0 DUP1 REVERT JUMPDEST POP PUSH3 0x48E DUP10 DUP3 DUP11 ADD PUSH3 0x344 JUMP JUMPDEST SWAP2 POP POP SWAP3 SWAP6 POP SWAP3 SWAP6 POP SWAP3 SWAP6 JUMP JUMPDEST PUSH1 0x80 MLOAD PUSH1 0xA0 MLOAD PUSH2 0x2831 PUSH3 0x4CF PUSH1 0x0 CODECOPY PUSH1 0x0 DUP2 DUP2 PUSH2 0x3C4 ADD MSTORE PUSH2 0x1398 ADD MSTORE PUSH1 0x0 DUP2 DUP2 PUSH2 0x503 ADD MSTORE PUSH2 0xE93 ADD MSTORE PUSH2 0x2831 PUSH1 0x0 RETURN INVALID PUSH1 0x80 PUSH1 0x40 MSTORE PUSH1 0x4 CALLDATASIZE LT PUSH2 0x219 JUMPI PUSH1 0x0 CALLDATALOAD PUSH1 0xE0 SHR DUP1 PUSH4 0x66F3DB07 GT PUSH2 0x11D JUMPI DUP1 PUSH4 0xA22CB465 GT PUSH2 0xB0 JUMPI DUP1 PUSH4 0xE8A3D485 GT PUSH2 0x7F JUMPI DUP1 PUSH4 0xEDDD0D9C GT PUSH2 0x64 JUMPI DUP1 PUSH4 0xEDDD0D9C EQ PUSH2 0x645 JUMPI DUP1 PUSH4 0xF2FDE38B EQ PUSH2 0x665 JUMPI DUP1 PUSH4 0xF812D230 EQ PUSH2 0x685 JUMPI PUSH1 0x0 DUP1 REVERT JUMPDEST DUP1 PUSH4 0xE8A3D485 EQ PUSH2 0x5DA JUMPI DUP1 PUSH4 0xE985E9C5 EQ PUSH2 0x5EF JUMPI PUSH1 0x0 DUP1 REVERT JUMPDEST DUP1 PUSH4 0xA22CB465 EQ PUSH2 0x55A JUMPI DUP1 PUSH4 0xB88D4FDE EQ PUSH2 0x57A JUMPI DUP1 PUSH4 0xC87B56DD EQ PUSH2 0x59A JUMPI DUP1 PUSH4 0xDC3A2E1D EQ PUSH2 0x5BA JUMPI PUSH1 0x0 DUP1 REVERT JUMPDEST DUP1 PUSH4 0x8DA5CB5B GT PUSH2 0xEC JUMPI DUP1 PUSH4 0x8DA5CB5B EQ PUSH2 0x4C6 JUMPI DUP1 PUSH4 0x90B68BEE EQ PUSH2 0x4F1 JUMPI DUP1 PUSH4 0x938E3D7B EQ PUSH2 0x525 JUMPI DUP1 PUSH4 0x95D89B41 EQ PUSH2 0x545 JUMPI PUSH1 0x0 DUP1 REVERT JUMPDEST DUP1 PUSH4 0x66F3DB07 EQ PUSH2 0x45C JUMPI DUP1 PUSH4 0x6E865814 EQ PUSH2 0x471 JUMPI DUP1 PUSH4 0x70A08231 EQ PUSH2 0x491 JUMPI DUP1 PUSH4 0x715018A6 EQ PUSH2 0x4B1 JUMPI PUSH1 0x0 DUP1 REVERT JUMPDEST DUP1 PUSH4 0x23B872DD GT PUSH2 0x1B0 JUMPI DUP1 PUSH4 0x45C0F533 GT PUSH2 0x17F JUMPI DUP1 PUSH4 0x55F804B3 GT PUSH2 0x164 JUMPI DUP1 PUSH4 0x55F804B3 EQ PUSH2 0x406 JUMPI DUP1 PUSH4 0x59F6F9B4 EQ PUSH2 0x426 JUMPI DUP1 PUSH4 0x6352211E EQ PUSH2 0x43C JUMPI PUSH1 0x0 DUP1 REVERT JUMPDEST DUP1 PUSH4 0x45C0F533 EQ PUSH2 0x3B2 JUMPI DUP1 PUSH4 0x499F052C EQ PUSH2 0x3E6 JUMPI PUSH1 0x0 DUP1 REVERT JUMPDEST DUP1 PUSH4 0x23B872DD EQ PUSH2 0x33D JUMPI DUP1 PUSH4 0x2901C02C EQ PUSH2 0x35D JUMPI DUP1 PUSH4 0x3788FB6A EQ PUSH2 0x372 JUMPI DUP1 PUSH4 0x42842E0E EQ PUSH2 0x392 JUMPI PUSH1 0x0 DUP1 REVERT JUMPDEST DUP1 PUSH4 0x1249C58B GT PUSH2 0x1EC JUMPI DUP1 PUSH4 0x1249C58B EQ PUSH2 0x2DC JUMPI DUP1 PUSH4 0x13966DB5 EQ PUSH2 0x2E4 JUMPI DUP1 PUSH4 0x18160DDD EQ PUSH2 0x308 JUMPI DUP1 PUSH4 0x1E3BCC8E EQ PUSH2 0x31D JUMPI PUSH1 0x0 DUP1 REVERT JUMPDEST DUP1 PUSH4 0x1FFC9A7 EQ PUSH2 0x21E JUMPI DUP1 PUSH4 0x6FDDE03 EQ PUSH2 0x253 JUMPI DUP1 PUSH4 0x81812FC EQ PUSH2 0x275 JUMPI DUP1 PUSH4 0x95EA7B3 EQ PUSH2 0x2BA JUMPI JUMPDEST PUSH1 0x0 DUP1 REVERT JUMPDEST CALLVALUE DUP1 ISZERO PUSH2 0x22A JUMPI PUSH1 0x0 DUP1 REVERT JUMPDEST POP PUSH2 0x23E PUSH2 0x239 CALLDATASIZE PUSH1 0x4 PUSH2 0x2082 JUMP JUMPDEST PUSH2 0x6B7 JUMP JUMPDEST PUSH1 0x40 MLOAD SWAP1 ISZERO ISZERO DUP2 MSTORE PUSH1 0x20 ADD JUMPDEST PUSH1 0x40 MLOAD DUP1 SWAP2 SUB SWAP1 RETURN JUMPDEST CALLVALUE DUP1 ISZERO PUSH2 0x25F JUMPI PUSH1 0x0 DUP1 REVERT JUMPDEST POP PUSH2 0x268 PUSH2 0x79C JUMP JUMPDEST PUSH1 0x40 MLOAD PUSH2 0x24A SWAP2 SWAP1 PUSH2 0x210D JUMP JUMPDEST CALLVALUE DUP1 ISZERO PUSH2 0x281 JUMPI PUSH1 0x0 DUP1 REVERT JUMPDEST POP PUSH2 0x295 PUSH2 0x290 CALLDATASIZE PUSH1 0x4 PUSH2 0x2120 JUMP JUMPDEST PUSH2 0x82E JUMP JUMPDEST PUSH1 0x40 MLOAD PUSH20 0xFFFFFFFFFFFFFFFFFFFFFFFFFFFFFFFFFFFFFFFF SWAP1 SWAP2 AND DUP2 MSTORE PUSH1 0x20 ADD PUSH2 0x24A JUMP JUMPDEST CALLVALUE DUP1 ISZERO PUSH2 0x2C6 JUMPI PUSH1 0x0 DUP1 REVERT JUMPDEST POP PUSH2 0x2DA PUSH2 0x2D5 CALLDATASIZE PUSH1 0x4 PUSH2 0x215B JUMP JUMPDEST PUSH2 0x862 JUMP JUMPDEST STOP JUMPDEST PUSH2 0x2DA PUSH2 0xA1E JUMP JUMPDEST CALLVALUE DUP1 ISZERO PUSH2 0x2F0 JUMPI PUSH1 0x0 DUP1 REVERT JUMPDEST POP PUSH2 0x2FA PUSH1 0xD SLOAD DUP2 JUMP JUMPDEST PUSH1 0x40 MLOAD SWAP1 DUP2 MSTORE PUSH1 0x20 ADD PUSH2 0x24A JUMP JUMPDEST CALLVALUE DUP1 ISZERO PUSH2 0x314 JUMPI PUSH1 0x0 DUP1 REVERT JUMPDEST POP PUSH2 0x2FA PUSH2 0xBCF JUMP JUMPDEST CALLVALUE DUP1 ISZERO PUSH2 0x329 JUMPI PUSH1 0x0 DUP1 REVERT JUMPDEST POP PUSH2 0x2DA PUSH2 0x338 CALLDATASIZE PUSH1 0x4 PUSH2 0x2187 JUMP JUMPDEST PUSH2 0xBDF JUMP JUMPDEST CALLVALUE DUP1 ISZERO PUSH2 0x349 JUMPI PUSH1 0x0 DUP1 REVERT JUMPDEST POP PUSH2 0x2DA PUSH2 0x358 CALLDATASIZE PUSH1 0x4 PUSH2 0x21A4 JUMP JUMPDEST PUSH2 0xBF3 JUMP JUMPDEST CALLVALUE DUP1 ISZERO PUSH2 0x369 JUMPI PUSH1 0x0 DUP1 REVERT JUMPDEST POP PUSH2 0x268 PUSH2 0xC94 JUMP JUMPDEST CALLVALUE DUP1 ISZERO PUSH2 0x37E JUMPI PUSH1 0x0 DUP1 REVERT JUMPDEST POP PUSH2 0x2DA PUSH2 0x38D CALLDATASIZE PUSH1 0x4 PUSH2 0x2187 JUMP JUMPDEST PUSH2 0xD22 JUMP JUMPDEST CALLVALUE DUP1 ISZERO PUSH2 0x39E JUMPI PUSH1 0x0 DUP1 REVERT JUMPDEST POP PUSH2 0x2DA PUSH2 0x3AD CALLDATASIZE PUSH1 0x4 PUSH2 0x21A4 JUMP JUMPDEST PUSH2 0xD71 JUMP JUMPDEST CALLVALUE DUP1 ISZERO PUSH2 0x3BE JUMPI PUSH1 0x0 DUP1 REVERT JUMPDEST POP PUSH2 0x2FA PUSH32 0x0 DUP2 JUMP JUMPDEST CALLVALUE DUP1 ISZERO PUSH2 0x3F2 JUMPI PUSH1 0x0 DUP1 REVERT JUMPDEST POP PUSH2 0x2DA PUSH2 0x401 CALLDATASIZE PUSH1 0x4 PUSH2 0x2120 JUMP JUMPDEST PUSH2 0xD8C JUMP JUMPDEST CALLVALUE DUP1 ISZERO PUSH2 0x412 JUMPI PUSH1 0x0 DUP1 REVERT JUMPDEST POP PUSH2 0x2DA PUSH2 0x421 CALLDATASIZE PUSH1 0x4 PUSH2 0x21E5 JUMP JUMPDEST PUSH2 0xD99 JUMP JUMPDEST CALLVALUE DUP1 ISZERO PUSH2 0x432 JUMPI PUSH1 0x0 DUP1 REVERT JUMPDEST POP PUSH2 0x2FA PUSH1 0xC SLOAD DUP2 JUMP JUMPDEST CALLVALUE DUP1 ISZERO PUSH2 0x448 JUMPI PUSH1 0x0 DUP1 REVERT JUMPDEST POP PUSH2 0x295 PUSH2 0x457 CALLDATASIZE PUSH1 0x4 PUSH2 0x2120 JUMP JUMPDEST PUSH2 0xDAE JUMP JUMPDEST CALLVALUE DUP1 ISZERO PUSH2 0x468 JUMPI PUSH1 0x0 DUP1 REVERT JUMPDEST POP PUSH2 0x268 PUSH2 0xE3A JUMP JUMPDEST CALLVALUE DUP1 ISZERO PUSH2 0x47D JUMPI PUSH1 0x0 DUP1 REVERT JUMPDEST POP PUSH2 0x23E PUSH2 0x48C CALLDATASIZE PUSH1 0x4 PUSH2 0x2187 JUMP JUMPDEST PUSH2 0xE47 JUMP JUMPDEST CALLVALUE DUP1 ISZERO PUSH2 0x49D JUMPI PUSH1 0x0 DUP1 REVERT JUMPDEST POP PUSH2 0x2FA PUSH2 0x4AC CALLDATASIZE PUSH1 0x4 PUSH2 0x2187 JUMP JUMPDEST PUSH2 0xF0C JUMP JUMPDEST CALLVALUE DUP1 ISZERO PUSH2 0x4BD JUMPI PUSH1 0x0 DUP1 REVERT JUMPDEST POP PUSH2 0x2DA PUSH2 0xFDA JUMP JUMPDEST CALLVALUE DUP1 ISZERO PUSH2 0x4D2 JUMPI PUSH1 0x0 DUP1 REVERT JUMPDEST POP PUSH1 0x6 SLOAD PUSH20 0xFFFFFFFFFFFFFFFFFFFFFFFFFFFFFFFFFFFFFFFF AND PUSH2 0x295 JUMP JUMPDEST CALLVALUE DUP1 ISZERO PUSH2 0x4FD JUMPI PUSH1 0x0 DUP1 REVERT JUMPDEST POP PUSH2 0x295 PUSH32 0x0 DUP2 JUMP JUMPDEST CALLVALUE DUP1 ISZERO PUSH2 0x531 JUMPI PUSH1 0x0 DUP1 REVERT JUMPDEST POP PUSH2 0x2DA PUSH2 0x540 CALLDATASIZE PUSH1 0x4 PUSH2 0x21E5 JUMP JUMPDEST PUSH2 0xFEC JUMP JUMPDEST CALLVALUE DUP1 ISZERO PUSH2 0x551 JUMPI PUSH1 0x0 DUP1 REVERT JUMPDEST POP PUSH2 0x268 PUSH2 0x1001 JUMP JUMPDEST CALLVALUE DUP1 ISZERO PUSH2 0x566 JUMPI PUSH1 0x0 DUP1 REVERT JUMPDEST POP PUSH2 0x2DA PUSH2 0x575 CALLDATASIZE PUSH1 0x4 PUSH2 0x226C JUMP JUMPDEST PUSH2 0x1010 JUMP JUMPDEST CALLVALUE DUP1 ISZERO PUSH2 0x586 JUMPI PUSH1 0x0 DUP1 REVERT JUMPDEST POP PUSH2 0x2DA PUSH2 0x595 CALLDATASIZE PUSH1 0x4 PUSH2 0x231F JUMP JUMPDEST PUSH2 0x101F JUMP JUMPDEST CALLVALUE DUP1 ISZERO PUSH2 0x5A6 JUMPI PUSH1 0x0 DUP1 REVERT JUMPDEST POP PUSH2 0x268 PUSH2 0x5B5 CALLDATASIZE PUSH1 0x4 PUSH2 0x2120 JUMP JUMPDEST PUSH2 0x10C7 JUMP JUMPDEST CALLVALUE DUP1 ISZERO PUSH2 0x5C6 JUMPI PUSH1 0x0 DUP1 REVERT JUMPDEST POP PUSH2 0x2DA PUSH2 0x5D5 CALLDATASIZE PUSH1 0x4 PUSH2 0x2401 JUMP JUMPDEST PUSH2 0x112E JUMP JUMPDEST CALLVALUE DUP1 ISZERO PUSH2 0x5E6 JUMPI PUSH1 0x0 DUP1 REVERT JUMPDEST POP PUSH2 0x268 PUSH2 0x1180 JUMP JUMPDEST CALLVALUE DUP1 ISZERO PUSH2 0x5FB JUMPI PUSH1 0x0 DUP1 REVERT JUMPDEST POP PUSH2 0x23E PUSH2 0x60A CALLDATASIZE PUSH1 0x4 PUSH2 0x241C JUMP JUMPDEST PUSH20 0xFFFFFFFFFFFFFFFFFFFFFFFFFFFFFFFFFFFFFFFF SWAP2 DUP3 AND PUSH1 0x0 SWAP1 DUP2 MSTORE PUSH1 0x5 PUSH1 0x20 SWAP1 DUP2 MSTORE PUSH1 0x40 DUP1 DUP4 KECCAK256 SWAP4 SWAP1 SWAP5 AND DUP3 MSTORE SWAP2 SWAP1 SWAP2 MSTORE KECCAK256 SLOAD PUSH1 0xFF AND SWAP1 JUMP JUMPDEST CALLVALUE DUP1 ISZERO PUSH2 0x651 JUMPI PUSH1 0x0 DUP1 REVERT JUMPDEST POP PUSH2 0x2DA PUSH2 0x660 CALLDATASIZE PUSH1 0x4 PUSH2 0x2120 JUMP JUMPDEST PUSH2 0x118F JUMP JUMPDEST CALLVALUE DUP1 ISZERO PUSH2 0x671 JUMPI PUSH1 0x0 DUP1 REVERT JUMPDEST POP PUSH2 0x2DA PUSH2 0x680 CALLDATASIZE PUSH1 0x4 PUSH2 0x2187 JUMP JUMPDEST PUSH2 0x119C JUMP JUMPDEST CALLVALUE DUP1 ISZERO PUSH2 0x691 JUMPI PUSH1 0x0 DUP1 REVERT JUMPDEST POP PUSH1 0xE SLOAD PUSH2 0x23E SWAP1 PUSH21 0x10000000000000000000000000000000000000000 SWAP1 DIV PUSH1 0xFF AND DUP2 JUMP JUMPDEST PUSH1 0x0 PUSH32 0xFFFFFFFF00000000000000000000000000000000000000000000000000000000 DUP3 AND PUSH32 0x80AC58CD00000000000000000000000000000000000000000000000000000000 EQ DUP1 PUSH2 0x74A JUMPI POP PUSH32 0xFFFFFFFF00000000000000000000000000000000000000000000000000000000 DUP3 AND PUSH32 0x5B5E139F00000000000000000000000000000000000000000000000000000000 EQ JUMPDEST DUP1 PUSH2 0x796 JUMPI POP PUSH32 0x1FFC9A700000000000000000000000000000000000000000000000000000000 PUSH32 0xFFFFFFFF00000000000000000000000000000000000000000000000000000000 DUP4 AND EQ JUMPDEST SWAP3 SWAP2 POP POP JUMP JUMPDEST PUSH1 0x60 PUSH1 0x0 DUP1 SLOAD PUSH2 0x7AB SWAP1 PUSH2 0x2455 JUMP JUMPDEST DUP1 PUSH1 0x1F ADD PUSH1 0x20 DUP1 SWAP2 DIV MUL PUSH1 0x20 ADD PUSH1 0x40 MLOAD SWAP1 DUP2 ADD PUSH1 0x40 MSTORE DUP1 SWAP3 SWAP2 SWAP1 DUP2 DUP2 MSTORE PUSH1 0x20 ADD DUP3 DUP1 SLOAD PUSH2 0x7D7 SWAP1 PUSH2 0x2455 JUMP JUMPDEST DUP1 ISZERO PUSH2 0x824 JUMPI DUP1 PUSH1 0x1F LT PUSH2 0x7F9 JUMPI PUSH2 0x100 DUP1 DUP4 SLOAD DIV MUL DUP4 MSTORE SWAP2 PUSH1 0x20 ADD SWAP2 PUSH2 0x824 JUMP JUMPDEST DUP3 ADD SWAP2 SWAP1 PUSH1 0x0 MSTORE PUSH1 0x20 PUSH1 0x0 KECCAK256 SWAP1 JUMPDEST DUP2 SLOAD DUP2 MSTORE SWAP1 PUSH1 0x1 ADD SWAP1 PUSH1 0x20 ADD DUP1 DUP4 GT PUSH2 0x807 JUMPI DUP3 SWAP1 SUB PUSH1 0x1F AND DUP3 ADD SWAP2 JUMPDEST POP POP POP POP POP SWAP1 POP SWAP1 JUMP JUMPDEST PUSH1 0x0 PUSH2 0x839 DUP3 PUSH2 0x1250 JUMP JUMPDEST POP PUSH1 0x0 SWAP1 DUP2 MSTORE PUSH1 0x4 PUSH1 0x20 MSTORE PUSH1 0x40 SWAP1 KECCAK256 SLOAD PUSH20 0xFFFFFFFFFFFFFFFFFFFFFFFFFFFFFFFFFFFFFFFF AND SWAP1 JUMP JUMPDEST PUSH1 0x0 PUSH2 0x86D DUP3 PUSH2 0xDAE JUMP JUMPDEST SWAP1 POP DUP1 PUSH20 0xFFFFFFFFFFFFFFFFFFFFFFFFFFFFFFFFFFFFFFFF AND DUP4 PUSH20 0xFFFFFFFFFFFFFFFFFFFFFFFFFFFFFFFFFFFFFFFF AND SUB PUSH2 0x92F JUMPI PUSH1 0x40 MLOAD PUSH32 0x8C379A000000000000000000000000000000000000000000000000000000000 DUP2 MSTORE PUSH1 0x20 PUSH1 0x4 DUP3 ADD MSTORE PUSH1 0x21 PUSH1 0x24 DUP3 ADD MSTORE PUSH32 0x4552433732313A20617070726F76616C20746F2063757272656E74206F776E65 PUSH1 0x44 DUP3 ADD MSTORE PUSH32 0x7200000000000000000000000000000000000000000000000000000000000000 PUSH1 0x64 DUP3 ADD MSTORE PUSH1 0x84 ADD JUMPDEST PUSH1 0x40 MLOAD DUP1 SWAP2 SUB SWAP1 REVERT JUMPDEST CALLER PUSH20 0xFFFFFFFFFFFFFFFFFFFFFFFFFFFFFFFFFFFFFFFF DUP3 AND EQ DUP1 PUSH2 0x983 JUMPI POP PUSH20 0xFFFFFFFFFFFFFFFFFFFFFFFFFFFFFFFFFFFFFFFF DUP2 AND PUSH1 0x0 SWAP1 DUP2 MSTORE PUSH1 0x5 PUSH1 0x20 SWAP1 DUP2 MSTORE PUSH1 0x40 DUP1 DUP4 KECCAK256 CALLER DUP5 MSTORE SWAP1 SWAP2 MSTORE SWAP1 KECCAK256 SLOAD PUSH1 0xFF AND JUMPDEST PUSH2 0xA0F JUMPI PUSH1 0x40 MLOAD PUSH32 0x8C379A000000000000000000000000000000000000000000000000000000000 DUP2 MSTORE PUSH1 0x20 PUSH1 0x4 DUP3 ADD MSTORE PUSH1 0x3E PUSH1 0x24 DUP3 ADD MSTORE PUSH32 0x4552433732313A20617070726F76652063616C6C6572206973206E6F7420746F PUSH1 0x44 DUP3 ADD MSTORE PUSH32 0x6B656E206F776E6572206E6F7220617070726F76656420666F7220616C6C0000 PUSH1 0x64 DUP3 ADD MSTORE PUSH1 0x84 ADD PUSH2 0x926 JUMP JUMPDEST PUSH2 0xA19 DUP4 DUP4 PUSH2 0x12DB JUMP JUMPDEST POP POP POP JUMP JUMPDEST PUSH1 0xD SLOAD CALLVALUE LT ISZERO PUSH2 0xA8A JUMPI PUSH1 0x40 MLOAD PUSH32 0x8C379A000000000000000000000000000000000000000000000000000000000 DUP2 MSTORE PUSH1 0x20 PUSH1 0x4 DUP3 ADD MSTORE PUSH1 0x18 PUSH1 0x24 DUP3 ADD MSTORE PUSH32 0x4D696E696D756D206D696E7420666565206E6F74206D65740000000000000000 PUSH1 0x44 DUP3 ADD MSTORE PUSH1 0x64 ADD PUSH2 0x926 JUMP JUMPDEST PUSH1 0xE SLOAD PUSH1 0x40 MLOAD PUSH20 0xFFFFFFFFFFFFFFFFFFFFFFFFFFFFFFFFFFFFFFFF SWAP1 SWAP2 AND SWAP1 SELFBALANCE DUP1 ISZERO PUSH2 0x8FC MUL SWAP2 PUSH1 0x0 DUP2 DUP2 DUP2 DUP6 DUP9 DUP9 CALL SWAP4 POP POP POP POP ISZERO DUP1 ISZERO PUSH2 0xAD0 JUMPI RETURNDATASIZE PUSH1 0x0 DUP1 RETURNDATACOPY RETURNDATASIZE PUSH1 0x0 REVERT JUMPDEST POP PUSH1 0xE SLOAD PUSH21 0x10000000000000000000000000000000000000000 SWAP1 DIV PUSH1 0xFF AND PUSH2 0xB55 JUMPI PUSH1 0x40 MLOAD PUSH32 0x8C379A000000000000000000000000000000000000000000000000000000000 DUP2 MSTORE PUSH1 0x20 PUSH1 0x4 DUP3 ADD MSTORE PUSH1 0x18 PUSH1 0x24 DUP3 ADD MSTORE PUSH32 0x4F70656E206D696E74696E67206E6F7420656E61626C65640000000000000000 PUSH1 0x44 DUP3 ADD MSTORE PUSH1 0x64 ADD PUSH2 0x926 JUMP JUMPDEST PUSH2 0xB5E CALLER PUSH2 0xE47 JUMP JUMPDEST PUSH2 0xBC4 JUMPI PUSH1 0x40 MLOAD PUSH32 0x8C379A000000000000000000000000000000000000000000000000000000000 DUP2 MSTORE PUSH1 0x20 PUSH1 0x4 DUP3 ADD MSTORE PUSH1 0x17 PUSH1 0x24 DUP3 ADD MSTORE PUSH32 0x4D696E746572206E65656473206120434B2070726F6F66000000000000000000 PUSH1 0x44 DUP3 ADD MSTORE PUSH1 0x64 ADD PUSH2 0x926 JUMP JUMPDEST PUSH2 0xBCD CALLER PUSH2 0x137B JUMP JUMPDEST JUMP JUMPDEST PUSH1 0x0 PUSH2 0xBDA PUSH1 0x9 SLOAD SWAP1 JUMP JUMPDEST SWAP1 POP SWAP1 JUMP JUMPDEST PUSH2 0xBE7 PUSH2 0x1429 JUMP JUMPDEST PUSH2 0xBF0 DUP2 PUSH2 0x137B JUMP JUMPDEST POP JUMP JUMPDEST PUSH2 0xBFD CALLER DUP3 PUSH2 0x14AA JUMP JUMPDEST PUSH2 0xC89 JUMPI PUSH1 0x40 MLOAD PUSH32 0x8C379A000000000000000000000000000000000000000000000000000000000 DUP2 MSTORE PUSH1 0x20 PUSH1 0x4 DUP3 ADD MSTORE PUSH1 0x2E PUSH1 0x24 DUP3 ADD MSTORE PUSH32 0x4552433732313A2063616C6C6572206973206E6F7420746F6B656E206F776E65 PUSH1 0x44 DUP3 ADD MSTORE PUSH32 0x72206E6F7220617070726F766564000000000000000000000000000000000000 PUSH1 0x64 DUP3 ADD MSTORE PUSH1 0x84 ADD PUSH2 0x926 JUMP JUMPDEST PUSH2 0xA19 DUP4 DUP4 DUP4 PUSH2 0x156A JUMP JUMPDEST PUSH1 0x7 DUP1 SLOAD PUSH2 0xCA1 SWAP1 PUSH2 0x2455 JUMP JUMPDEST DUP1 PUSH1 0x1F ADD PUSH1 0x20 DUP1 SWAP2 DIV MUL PUSH1 0x20 ADD PUSH1 0x40 MLOAD SWAP1 DUP2 ADD PUSH1 0x40 MSTORE DUP1 SWAP3 SWAP2 SWAP1 DUP2 DUP2 MSTORE PUSH1 0x20 ADD DUP3 DUP1 SLOAD PUSH2 0xCCD SWAP1 PUSH2 0x2455 JUMP JUMPDEST DUP1 ISZERO PUSH2 0xD1A JUMPI DUP1 PUSH1 0x1F LT PUSH2 0xCEF JUMPI PUSH2 0x100 DUP1 DUP4 SLOAD DIV MUL DUP4 MSTORE SWAP2 PUSH1 0x20 ADD SWAP2 PUSH2 0xD1A JUMP JUMPDEST DUP3 ADD SWAP2 SWAP1 PUSH1 0x0 MSTORE PUSH1 0x20 PUSH1 0x0 KECCAK256 SWAP1 JUMPDEST DUP2 SLOAD DUP2 MSTORE SWAP1 PUSH1 0x1 ADD SWAP1 PUSH1 0x20 ADD DUP1 DUP4 GT PUSH2 0xCFD JUMPI DUP3 SWAP1 SUB PUSH1 0x1F AND DUP3 ADD SWAP2 JUMPDEST POP POP POP POP POP DUP2 JUMP JUMPDEST PUSH2 0xD2A PUSH2 0x1429 JUMP JUMPDEST PUSH1 0xE DUP1 SLOAD PUSH32 0xFFFFFFFFFFFFFFFFFFFFFFFF0000000000000000000000000000000000000000 AND PUSH20 0xFFFFFFFFFFFFFFFFFFFFFFFFFFFFFFFFFFFFFFFF SWAP3 SWAP1 SWAP3 AND SWAP2 SWAP1 SWAP2 OR SWAP1 SSTORE JUMP JUMPDEST PUSH2 0xA19 DUP4 DUP4 DUP4 PUSH1 0x40 MLOAD DUP1 PUSH1 0x20 ADD PUSH1 0x40 MSTORE DUP1 PUSH1 0x0 DUP2 MSTORE POP PUSH2 0x101F JUMP JUMPDEST PUSH2 0xD94 PUSH2 0x1429 JUMP JUMPDEST PUSH1 0xC SSTORE JUMP JUMPDEST PUSH2 0xDA1 PUSH2 0x1429 JUMP JUMPDEST PUSH1 0xB PUSH2 0xA19 DUP3 DUP5 DUP4 PUSH2 0x24F6 JUMP JUMPDEST PUSH1 0x0 DUP2 DUP2 MSTORE PUSH1 0x2 PUSH1 0x20 MSTORE PUSH1 0x40 DUP2 KECCAK256 SLOAD PUSH20 0xFFFFFFFFFFFFFFFFFFFFFFFFFFFFFFFFFFFFFFFF AND DUP1 PUSH2 0x796 JUMPI PUSH1 0x40 MLOAD PUSH32 0x8C379A000000000000000000000000000000000000000000000000000000000 DUP2 MSTORE PUSH1 0x20 PUSH1 0x4 DUP3 ADD MSTORE PUSH1 0x18 PUSH1 0x24 DUP3 ADD MSTORE PUSH32 0x4552433732313A20696E76616C696420746F6B656E2049440000000000000000 PUSH1 0x44 DUP3 ADD MSTORE PUSH1 0x64 ADD PUSH2 0x926 JUMP JUMPDEST PUSH1 0x8 DUP1 SLOAD PUSH2 0xCA1 SWAP1 PUSH2 0x2455 JUMP JUMPDEST PUSH1 0xC SLOAD PUSH1 0x40 MLOAD PUSH32 0x80C98DA00000000000000000000000000000000000000000000000000000000 DUP2 MSTORE PUSH20 0xFFFFFFFFFFFFFFFFFFFFFFFFFFFFFFFFFFFFFFFF DUP4 DUP2 AND PUSH1 0x4 DUP4 ADD MSTORE PUSH1 0x0 SWAP3 SWAP2 PUSH32 0x0 SWAP1 SWAP2 AND SWAP1 PUSH4 0x80C98DA SWAP1 PUSH1 0x24 ADD PUSH1 0x20 PUSH1 0x40 MLOAD DUP1 DUP4 SUB DUP2 PUSH1 0x0 DUP8 GAS CALL ISZERO DUP1 ISZERO PUSH2 0xEDE JUMPI RETURNDATASIZE PUSH1 0x0 DUP1 RETURNDATACOPY RETURNDATASIZE PUSH1 0x0 REVERT JUMPDEST POP POP POP POP PUSH1 0x40 MLOAD RETURNDATASIZE PUSH1 0x1F NOT PUSH1 0x1F DUP3 ADD AND DUP3 ADD DUP1 PUSH1 0x40 MSTORE POP DUP2 ADD SWAP1 PUSH2 0xF02 SWAP2 SWAP1 PUSH2 0x2611 JUMP JUMPDEST MLOAD AND ISZERO ISZERO SWAP3 SWAP2 POP POP JUMP JUMPDEST PUSH1 0x0 PUSH20 0xFFFFFFFFFFFFFFFFFFFFFFFFFFFFFFFFFFFFFFFF DUP3 AND PUSH2 0xFB1 JUMPI PUSH1 0x40 MLOAD PUSH32 0x8C379A000000000000000000000000000000000000000000000000000000000 DUP2 MSTORE PUSH1 0x20 PUSH1 0x4 DUP3 ADD MSTORE PUSH1 0x29 PUSH1 0x24 DUP3 ADD MSTORE PUSH32 0x4552433732313A2061646472657373207A65726F206973206E6F742061207661 PUSH1 0x44 DUP3 ADD MSTORE PUSH32 0x6C6964206F776E65720000000000000000000000000000000000000000000000 PUSH1 0x64 DUP3 ADD MSTORE PUSH1 0x84 ADD PUSH2 0x926 JUMP JUMPDEST POP PUSH20 0xFFFFFFFFFFFFFFFFFFFFFFFFFFFFFFFFFFFFFFFF AND PUSH1 0x0 SWAP1 DUP2 MSTORE PUSH1 0x3 PUSH1 0x20 MSTORE PUSH1 0x40 SWAP1 KECCAK256 SLOAD SWAP1 JUMP JUMPDEST PUSH2 0xFE2 PUSH2 0x1429 JUMP JUMPDEST PUSH2 0xBCD PUSH1 0x0 PUSH2 0x17DC JUMP JUMPDEST PUSH2 0xFF4 PUSH2 0x1429 JUMP JUMPDEST PUSH1 0xA PUSH2 0xA19 DUP3 DUP5 DUP4 PUSH2 0x24F6 JUMP JUMPDEST PUSH1 0x60 PUSH1 0x1 DUP1 SLOAD PUSH2 0x7AB SWAP1 PUSH2 0x2455 JUMP JUMPDEST PUSH2 0x101B CALLER DUP4 DUP4 PUSH2 0x1853 JUMP JUMPDEST POP POP JUMP JUMPDEST PUSH2 0x1029 CALLER DUP4 PUSH2 0x14AA JUMP JUMPDEST PUSH2 0x10B5 JUMPI PUSH1 0x40 MLOAD PUSH32 0x8C379A000000000000000000000000000000000000000000000000000000000 DUP2 MSTORE PUSH1 0x20 PUSH1 0x4 DUP3 ADD MSTORE PUSH1 0x2E PUSH1 0x24 DUP3 ADD MSTORE PUSH32 0x4552433732313A2063616C6C6572206973206E6F7420746F6B656E206F776E65 PUSH1 0x44 DUP3 ADD MSTORE PUSH32 0x72206E6F7220617070726F766564000000000000000000000000000000000000 PUSH1 0x64 DUP3 ADD MSTORE PUSH1 0x84 ADD PUSH2 0x926 JUMP JUMPDEST PUSH2 0x10C1 DUP5 DUP5 DUP5 DUP5 PUSH2 0x1980 JUMP JUMPDEST POP POP POP POP JUMP JUMPDEST PUSH1 0x60 PUSH2 0x10D2 DUP3 PUSH2 0x1250 JUMP JUMPDEST PUSH1 0x0 PUSH2 0x10DC PUSH2 0x1A23 JUMP JUMPDEST SWAP1 POP PUSH1 0x0 DUP2 MLOAD GT PUSH2 0x10FC JUMPI PUSH1 0x40 MLOAD DUP1 PUSH1 0x20 ADD PUSH1 0x40 MSTORE DUP1 PUSH1 0x0 DUP2 MSTORE POP PUSH2 0x1127 JUMP JUMPDEST DUP1 PUSH2 0x1106 DUP5 PUSH2 0x1A32 JUMP JUMPDEST PUSH1 0x40 MLOAD PUSH1 0x20 ADD PUSH2 0x1117 SWAP3 SWAP2 SWAP1 PUSH2 0x2653 JUMP JUMPDEST PUSH1 0x40 MLOAD PUSH1 0x20 DUP2 DUP4 SUB SUB DUP2 MSTORE SWAP1 PUSH1 0x40 MSTORE JUMPDEST SWAP4 SWAP3 POP POP POP JUMP JUMPDEST PUSH2 0x1136 PUSH2 0x1429 JUMP JUMPDEST PUSH1 0xE DUP1 SLOAD SWAP2 ISZERO ISZERO PUSH21 0x10000000000000000000000000000000000000000 MUL PUSH32 0xFFFFFFFFFFFFFFFFFFFFFF00FFFFFFFFFFFFFFFFFFFFFFFFFFFFFFFFFFFFFFFF SWAP1 SWAP3 AND SWAP2 SWAP1 SWAP2 OR SWAP1 SSTORE JUMP JUMPDEST PUSH1 0x60 PUSH1 0xA DUP1 SLOAD PUSH2 0x7AB SWAP1 PUSH2 0x2455 JUMP JUMPDEST PUSH2 0x1197 PUSH2 0x1429 JUMP JUMPDEST PUSH1 0xD SSTORE JUMP JUMPDEST PUSH2 0x11A4 PUSH2 0x1429 JUMP JUMPDEST PUSH20 0xFFFFFFFFFFFFFFFFFFFFFFFFFFFFFFFFFFFFFFFF DUP2 AND PUSH2 0x1247 JUMPI PUSH1 0x40 MLOAD PUSH32 0x8C379A000000000000000000000000000000000000000000000000000000000 DUP2 MSTORE PUSH1 0x20 PUSH1 0x4 DUP3 ADD MSTORE PUSH1 0x26 PUSH1 0x24 DUP3 ADD MSTORE PUSH32 0x4F776E61626C653A206E6577206F776E657220697320746865207A65726F2061 PUSH1 0x44 DUP3 ADD MSTORE PUSH32 0x6464726573730000000000000000000000000000000000000000000000000000 PUSH1 0x64 DUP3 ADD MSTORE PUSH1 0x84 ADD PUSH2 0x926 JUMP JUMPDEST PUSH2 0xBF0 DUP2 PUSH2 0x17DC JUMP JUMPDEST PUSH1 0x0 DUP2 DUP2 MSTORE PUSH1 0x2 PUSH1 0x20 MSTORE PUSH1 0x40 SWAP1 KECCAK256 SLOAD PUSH20 0xFFFFFFFFFFFFFFFFFFFFFFFFFFFFFFFFFFFFFFFF AND PUSH2 0xBF0 JUMPI PUSH1 0x40 MLOAD PUSH32 0x8C379A000000000000000000000000000000000000000000000000000000000 DUP2 MSTORE PUSH1 0x20 PUSH1 0x4 DUP3 ADD MSTORE PUSH1 0x18 PUSH1 0x24 DUP3 ADD MSTORE PUSH32 0x4552433732313A20696E76616C696420746F6B656E2049440000000000000000 PUSH1 0x44 DUP3 ADD MSTORE PUSH1 0x64 ADD PUSH2 0x926 JUMP JUMPDEST PUSH1 0x0 DUP2 DUP2 MSTORE PUSH1 0x4 PUSH1 0x20 MSTORE PUSH1 0x40 SWAP1 KECCAK256 DUP1 SLOAD PUSH32 0xFFFFFFFFFFFFFFFFFFFFFFFF0000000000000000000000000000000000000000 AND PUSH20 0xFFFFFFFFFFFFFFFFFFFFFFFFFFFFFFFFFFFFFFFF DUP5 AND SWAP1 DUP2 OR SWAP1 SWAP2 SSTORE DUP2 SWAP1 PUSH2 0x1335 DUP3 PUSH2 0xDAE JUMP JUMPDEST PUSH20 0xFFFFFFFFFFFFFFFFFFFFFFFFFFFFFFFFFFFFFFFF AND PUSH32 0x8C5BE1E5EBEC7D5BD14F71427D1E84F3DD0314C0F7B2291E5B200AC8C7C3B925 PUSH1 0x40 MLOAD PUSH1 0x40 MLOAD DUP1 SWAP2 SUB SWAP1 LOG4 POP POP JUMP JUMPDEST PUSH1 0x0 PUSH2 0x1386 PUSH1 0x9 SLOAD SWAP1 JUMP JUMPDEST SWAP1 POP PUSH2 0x1396 PUSH1 0x9 DUP1 SLOAD PUSH1 0x1 ADD SWAP1 SSTORE JUMP JUMPDEST PUSH32 0x0 DUP2 LT PUSH2 0x141F JUMPI PUSH1 0x40 MLOAD PUSH32 0x8C379A000000000000000000000000000000000000000000000000000000000 DUP2 MSTORE PUSH1 0x20 PUSH1 0x4 DUP3 ADD DUP2 SWAP1 MSTORE PUSH1 0x24 DUP3 ADD MSTORE PUSH32 0x416C6C2061746F6D6963204E4654732068617665206265656E206D696E746564 PUSH1 0x44 DUP3 ADD MSTORE PUSH1 0x64 ADD PUSH2 0x926 JUMP JUMPDEST PUSH2 0x101B DUP3 DUP3 PUSH2 0x1B67 JUMP JUMPDEST PUSH1 0x6 SLOAD PUSH20 0xFFFFFFFFFFFFFFFFFFFFFFFFFFFFFFFFFFFFFFFF AND CALLER EQ PUSH2 0xBCD JUMPI PUSH1 0x40 MLOAD PUSH32 0x8C379A000000000000000000000000000000000000000000000000000000000 DUP2 MSTORE PUSH1 0x20 PUSH1 0x4 DUP3 ADD DUP2 SWAP1 MSTORE PUSH1 0x24 DUP3 ADD MSTORE PUSH32 0x4F776E61626C653A2063616C6C6572206973206E6F7420746865206F776E6572 PUSH1 0x44 DUP3 ADD MSTORE PUSH1 0x64 ADD PUSH2 0x926 JUMP JUMPDEST PUSH1 0x0 DUP1 PUSH2 0x14B6 DUP4 PUSH2 0xDAE JUMP JUMPDEST SWAP1 POP DUP1 PUSH20 0xFFFFFFFFFFFFFFFFFFFFFFFFFFFFFFFFFFFFFFFF AND DUP5 PUSH20 0xFFFFFFFFFFFFFFFFFFFFFFFFFFFFFFFFFFFFFFFF AND EQ DUP1 PUSH2 0x1524 JUMPI POP PUSH20 0xFFFFFFFFFFFFFFFFFFFFFFFFFFFFFFFFFFFFFFFF DUP1 DUP3 AND PUSH1 0x0 SWAP1 DUP2 MSTORE PUSH1 0x5 PUSH1 0x20 SWAP1 DUP2 MSTORE PUSH1 0x40 DUP1 DUP4 KECCAK256 SWAP4 DUP9 AND DUP4 MSTORE SWAP3 SWAP1 MSTORE KECCAK256 SLOAD PUSH1 0xFF AND JUMPDEST DUP1 PUSH2 0x1562 JUMPI POP DUP4 PUSH20 0xFFFFFFFFFFFFFFFFFFFFFFFFFFFFFFFFFFFFFFFF AND PUSH2 0x154A DUP5 PUSH2 0x82E JUMP JUMPDEST PUSH20 0xFFFFFFFFFFFFFFFFFFFFFFFFFFFFFFFFFFFFFFFF AND EQ JUMPDEST SWAP5 SWAP4 POP POP POP POP JUMP JUMPDEST DUP3 PUSH20 0xFFFFFFFFFFFFFFFFFFFFFFFFFFFFFFFFFFFFFFFF AND PUSH2 0x158A DUP3 PUSH2 0xDAE JUMP JUMPDEST PUSH20 0xFFFFFFFFFFFFFFFFFFFFFFFFFFFFFFFFFFFFFFFF AND EQ PUSH2 0x162D JUMPI PUSH1 0x40 MLOAD PUSH32 0x8C379A000000000000000000000000000000000000000000000000000000000 DUP2 MSTORE PUSH1 0x20 PUSH1 0x4 DUP3 ADD MSTORE PUSH1 0x25 PUSH1 0x24 DUP3 ADD MSTORE PUSH32 0x4552433732313A207472616E736665722066726F6D20696E636F727265637420 PUSH1 0x44 DUP3 ADD MSTORE PUSH32 0x6F776E6572000000000000000000000000000000000000000000000000000000 PUSH1 0x64 DUP3 ADD MSTORE PUSH1 0x84 ADD PUSH2 0x926 JUMP JUMPDEST PUSH20 0xFFFFFFFFFFFFFFFFFFFFFFFFFFFFFFFFFFFFFFFF DUP3 AND PUSH2 0x16CF JUMPI PUSH1 0x40 MLOAD PUSH32 0x8C379A000000000000000000000000000000000000000000000000000000000 DUP2 MSTORE PUSH1 0x20 PUSH1 0x4 DUP3 ADD MSTORE PUSH1 0x24 DUP1 DUP3 ADD MSTORE PUSH32 0x4552433732313A207472616E7366657220746F20746865207A65726F20616464 PUSH1 0x44 DUP3 ADD MSTORE PUSH32 0x7265737300000000000000000000000000000000000000000000000000000000 PUSH1 0x64 DUP3 ADD MSTORE PUSH1 0x84 ADD PUSH2 0x926 JUMP JUMPDEST PUSH2 0x16DA DUP4 DUP4 DUP4 PUSH2 0x1B81 JUMP JUMPDEST PUSH2 0x16E5 PUSH1 0x0 DUP3 PUSH2 0x12DB JUMP JUMPDEST PUSH20 0xFFFFFFFFFFFFFFFFFFFFFFFFFFFFFFFFFFFFFFFF DUP4 AND PUSH1 0x0 SWAP1 DUP2 MSTORE PUSH1 0x3 PUSH1 0x20 MSTORE PUSH1 0x40 DUP2 KECCAK256 DUP1 SLOAD PUSH1 0x1 SWAP3 SWAP1 PUSH2 0x171B SWAP1 DUP5 SWAP1 PUSH2 0x26B1 JUMP JUMPDEST SWAP1 SWAP2 SSTORE POP POP PUSH20 0xFFFFFFFFFFFFFFFFFFFFFFFFFFFFFFFFFFFFFFFF DUP3 AND PUSH1 0x0 SWAP1 DUP2 MSTORE PUSH1 0x3 PUSH1 0x20 MSTORE PUSH1 0x40 DUP2 KECCAK256 DUP1 SLOAD PUSH1 0x1 SWAP3 SWAP1 PUSH2 0x1756 SWAP1 DUP5 SWAP1 PUSH2 0x26C4 JUMP JUMPDEST SWAP1 SWAP2 SSTORE POP POP PUSH1 0x0 DUP2 DUP2 MSTORE PUSH1 0x2 PUSH1 0x20 MSTORE PUSH1 0x40 DUP1 DUP3 KECCAK256 DUP1 SLOAD PUSH32 0xFFFFFFFFFFFFFFFFFFFFFFFF0000000000000000000000000000000000000000 AND PUSH20 0xFFFFFFFFFFFFFFFFFFFFFFFFFFFFFFFFFFFFFFFF DUP7 DUP2 AND SWAP2 DUP3 OR SWAP1 SWAP3 SSTORE SWAP2 MLOAD DUP5 SWAP4 SWAP2 DUP8 AND SWAP2 PUSH32 0xDDF252AD1BE2C89B69C2B068FC378DAA952BA7F163C4A11628F55A4DF523B3EF SWAP2 LOG4 POP POP POP JUMP JUMPDEST PUSH1 0x6 DUP1 SLOAD PUSH20 0xFFFFFFFFFFFFFFFFFFFFFFFFFFFFFFFFFFFFFFFF DUP4 DUP2 AND PUSH32 0xFFFFFFFFFFFFFFFFFFFFFFFF0000000000000000000000000000000000000000 DUP4 AND DUP2 OR SWAP1 SWAP4 SSTORE PUSH1 0x40 MLOAD SWAP2 AND SWAP2 SWAP1 DUP3 SWAP1 PUSH32 0x8BE0079C531659141344CD1FD0A4F28419497F9722A3DAAFE3B4186F6B6457E0 SWAP1 PUSH1 0x0 SWAP1 LOG3 POP POP JUMP JUMPDEST DUP2 PUSH20 0xFFFFFFFFFFFFFFFFFFFFFFFFFFFFFFFFFFFFFFFF AND DUP4 PUSH20 0xFFFFFFFFFFFFFFFFFFFFFFFFFFFFFFFFFFFFFFFF AND SUB PUSH2 0x18E8 JUMPI PUSH1 0x40 MLOAD PUSH32 0x8C379A000000000000000000000000000000000000000000000000000000000 DUP2 MSTORE PUSH1 0x20 PUSH1 0x4 DUP3 ADD MSTORE PUSH1 0x19 PUSH1 0x24 DUP3 ADD MSTORE PUSH32 0x4552433732313A20617070726F766520746F2063616C6C657200000000000000 PUSH1 0x44 DUP3 ADD MSTORE PUSH1 0x64 ADD PUSH2 0x926 JUMP JUMPDEST PUSH20 0xFFFFFFFFFFFFFFFFFFFFFFFFFFFFFFFFFFFFFFFF DUP4 DUP2 AND PUSH1 0x0 DUP2 DUP2 MSTORE PUSH1 0x5 PUSH1 0x20 SWAP1 DUP2 MSTORE PUSH1 0x40 DUP1 DUP4 KECCAK256 SWAP5 DUP8 AND DUP1 DUP5 MSTORE SWAP5 DUP3 MSTORE SWAP2 DUP3 SWAP1 KECCAK256 DUP1 SLOAD PUSH32 0xFFFFFFFFFFFFFFFFFFFFFFFFFFFFFFFFFFFFFFFFFFFFFFFFFFFFFFFFFFFFFF00 AND DUP7 ISZERO ISZERO SWAP1 DUP2 OR SWAP1 SWAP2 SSTORE SWAP2 MLOAD SWAP2 DUP3 MSTORE PUSH32 0x17307EAB39AB6107E8899845AD3D59BD9653F200F220920489CA2B5937696C31 SWAP2 ADD PUSH1 0x40 MLOAD DUP1 SWAP2 SUB SWAP1 LOG3 POP POP POP JUMP JUMPDEST PUSH2 0x198B DUP5 DUP5 DUP5 PUSH2 0x156A JUMP JUMPDEST PUSH2 0x1997 DUP5 DUP5 DUP5 DUP5 PUSH2 0x1BF0 JUMP JUMPDEST PUSH2 0x10C1 JUMPI PUSH1 0x40 MLOAD PUSH32 0x8C379A000000000000000000000000000000000000000000000000000000000 DUP2 MSTORE PUSH1 0x20 PUSH1 0x4 DUP3 ADD MSTORE PUSH1 0x32 PUSH1 0x24 DUP3 ADD MSTORE PUSH32 0x4552433732313A207472616E7366657220746F206E6F6E204552433732315265 PUSH1 0x44 DUP3 ADD MSTORE PUSH32 0x63656976657220696D706C656D656E7465720000000000000000000000000000 PUSH1 0x64 DUP3 ADD MSTORE PUSH1 0x84 ADD PUSH2 0x926 JUMP JUMPDEST PUSH1 0x60 PUSH1 0xB DUP1 SLOAD PUSH2 0x7AB SWAP1 PUSH2 0x2455 JUMP JUMPDEST PUSH1 0x60 DUP2 PUSH1 0x0 SUB PUSH2 0x1A75 JUMPI POP POP PUSH1 0x40 DUP1 MLOAD DUP1 DUP3 ADD SWAP1 SWAP2 MSTORE PUSH1 0x1 DUP2 MSTORE PUSH32 0x3000000000000000000000000000000000000000000000000000000000000000 PUSH1 0x20 DUP3 ADD MSTORE SWAP1 JUMP JUMPDEST DUP2 PUSH1 0x0 JUMPDEST DUP2 ISZERO PUSH2 0x1A9F JUMPI DUP1 PUSH2 0x1A89 DUP2 PUSH2 0x26D7 JUMP JUMPDEST SWAP2 POP PUSH2 0x1A98 SWAP1 POP PUSH1 0xA DUP4 PUSH2 0x273E JUMP JUMPDEST SWAP2 POP PUSH2 0x1A79 JUMP JUMPDEST PUSH1 0x0 DUP2 PUSH8 0xFFFFFFFFFFFFFFFF DUP2 GT ISZERO PUSH2 0x1ABA JUMPI PUSH2 0x1ABA PUSH2 0x22A1 JUMP JUMPDEST PUSH1 0x40 MLOAD SWAP1 DUP1 DUP3 MSTORE DUP1 PUSH1 0x1F ADD PUSH1 0x1F NOT AND PUSH1 0x20 ADD DUP3 ADD PUSH1 0x40 MSTORE DUP1 ISZERO PUSH2 0x1AE4 JUMPI PUSH1 0x20 DUP3 ADD DUP2 DUP1 CALLDATASIZE DUP4 CALLDATACOPY ADD SWAP1 POP JUMPDEST POP SWAP1 POP JUMPDEST DUP5 ISZERO PUSH2 0x1562 JUMPI PUSH2 0x1AF9 PUSH1 0x1 DUP4 PUSH2 0x26B1 JUMP JUMPDEST SWAP2 POP PUSH2 0x1B06 PUSH1 0xA DUP7 PUSH2 0x2752 JUMP JUMPDEST PUSH2 0x1B11 SWAP1 PUSH1 0x30 PUSH2 0x26C4 JUMP JUMPDEST PUSH1 0xF8 SHL DUP2 DUP4 DUP2 MLOAD DUP2 LT PUSH2 0x1B26 JUMPI PUSH2 0x1B26 PUSH2 0x2766 JUMP JUMPDEST PUSH1 0x20 ADD ADD SWAP1 PUSH31 0xFFFFFFFFFFFFFFFFFFFFFFFFFFFFFFFFFFFFFFFFFFFFFFFFFFFFFFFFFFFFFF NOT AND SWAP1 DUP2 PUSH1 0x0 BYTE SWAP1 MSTORE8 POP PUSH2 0x1B60 PUSH1 0xA DUP7 PUSH2 0x273E JUMP JUMPDEST SWAP5 POP PUSH2 0x1AE8 JUMP JUMPDEST PUSH2 0x101B DUP3 DUP3 PUSH1 0x40 MLOAD DUP1 PUSH1 0x20 ADD PUSH1 0x40 MSTORE DUP1 PUSH1 0x0 DUP2 MSTORE POP PUSH2 0x1DE3 JUMP JUMPDEST PUSH2 0x1B8A DUP3 PUSH2 0xE47 JUMP JUMPDEST PUSH2 0xA19 JUMPI PUSH1 0x40 MLOAD PUSH32 0x8C379A000000000000000000000000000000000000000000000000000000000 DUP2 MSTORE PUSH1 0x20 PUSH1 0x4 DUP3 ADD MSTORE PUSH1 0x1A PUSH1 0x24 DUP3 ADD MSTORE PUSH32 0x526563697069656E74206E65656473206120434B2070726F6F66000000000000 PUSH1 0x44 DUP3 ADD MSTORE PUSH1 0x64 ADD PUSH2 0x926 JUMP JUMPDEST PUSH1 0x0 PUSH20 0xFFFFFFFFFFFFFFFFFFFFFFFFFFFFFFFFFFFFFFFF DUP5 AND EXTCODESIZE ISZERO PUSH2 0x1DD8 JUMPI PUSH1 0x40 MLOAD PUSH32 0x150B7A0200000000000000000000000000000000000000000000000000000000 DUP2 MSTORE PUSH20 0xFFFFFFFFFFFFFFFFFFFFFFFFFFFFFFFFFFFFFFFF DUP6 AND SWAP1 PUSH4 0x150B7A02 SWAP1 PUSH2 0x1C67 SWAP1 CALLER SWAP1 DUP10 SWAP1 DUP9 SWAP1 DUP9 SWAP1 PUSH1 0x4 ADD PUSH2 0x2795 JUMP JUMPDEST PUSH1 0x20 PUSH1 0x40 MLOAD DUP1 DUP4 SUB DUP2 PUSH1 0x0 DUP8 GAS CALL SWAP3 POP POP POP DUP1 ISZERO PUSH2 0x1CC0 JUMPI POP PUSH1 0x40 DUP1 MLOAD PUSH1 0x1F RETURNDATASIZE SWAP1 DUP2 ADD PUSH32 0xFFFFFFFFFFFFFFFFFFFFFFFFFFFFFFFFFFFFFFFFFFFFFFFFFFFFFFFFFFFFFFE0 AND DUP3 ADD SWAP1 SWAP3 MSTORE PUSH2 0x1CBD SWAP2 DUP2 ADD SWAP1 PUSH2 0x27DE JUMP JUMPDEST PUSH1 0x1 JUMPDEST PUSH2 0x1D8D JUMPI RETURNDATASIZE DUP1 DUP1 ISZERO PUSH2 0x1CEE JUMPI PUSH1 0x40 MLOAD SWAP2 POP PUSH1 0x1F NOT PUSH1 0x3F RETURNDATASIZE ADD AND DUP3 ADD PUSH1 0x40 MSTORE RETURNDATASIZE DUP3 MSTORE RETURNDATASIZE PUSH1 0x0 PUSH1 0x20 DUP5 ADD RETURNDATACOPY PUSH2 0x1CF3 JUMP JUMPDEST PUSH1 0x60 SWAP2 POP JUMPDEST POP DUP1 MLOAD PUSH1 0x0 SUB PUSH2 0x1D85 JUMPI PUSH1 0x40 MLOAD PUSH32 0x8C379A000000000000000000000000000000000000000000000000000000000 DUP2 MSTORE PUSH1 0x20 PUSH1 0x4 DUP3 ADD MSTORE PUSH1 0x32 PUSH1 0x24 DUP3 ADD MSTORE PUSH32 0x4552433732313A207472616E7366657220746F206E6F6E204552433732315265 PUSH1 0x44 DUP3 ADD MSTORE PUSH32 0x63656976657220696D706C656D656E7465720000000000000000000000000000 PUSH1 0x64 DUP3 ADD MSTORE PUSH1 0x84 ADD PUSH2 0x926 JUMP JUMPDEST DUP1 MLOAD DUP2 PUSH1 0x20 ADD REVERT JUMPDEST PUSH32 0xFFFFFFFF00000000000000000000000000000000000000000000000000000000 AND PUSH32 0x150B7A0200000000000000000000000000000000000000000000000000000000 EQ SWAP1 POP PUSH2 0x1562 JUMP JUMPDEST POP PUSH1 0x1 SWAP5 SWAP4 POP POP POP POP JUMP JUMPDEST PUSH2 0x1DED DUP4 DUP4 PUSH2 0x1E86 JUMP JUMPDEST PUSH2 0x1DFA PUSH1 0x0 DUP5 DUP5 DUP5 PUSH2 0x1BF0 JUMP JUMPDEST PUSH2 0xA19 JUMPI PUSH1 0x40 MLOAD PUSH32 0x8C379A000000000000000000000000000000000000000000000000000000000 DUP2 MSTORE PUSH1 0x20 PUSH1 0x4 DUP3 ADD MSTORE PUSH1 0x32 PUSH1 0x24 DUP3 ADD MSTORE PUSH32 0x4552433732313A207472616E7366657220746F206E6F6E204552433732315265 PUSH1 0x44 DUP3 ADD MSTORE PUSH32 0x63656976657220696D706C656D656E7465720000000000000000000000000000 PUSH1 0x64 DUP3 ADD MSTORE PUSH1 0x84 ADD PUSH2 0x926 JUMP JUMPDEST PUSH20 0xFFFFFFFFFFFFFFFFFFFFFFFFFFFFFFFFFFFFFFFF DUP3 AND PUSH2 0x1F03 JUMPI PUSH1 0x40 MLOAD PUSH32 0x8C379A000000000000000000000000000000000000000000000000000000000 DUP2 MSTORE PUSH1 0x20 PUSH1 0x4 DUP3 ADD DUP2 SWAP1 MSTORE PUSH1 0x24 DUP3 ADD MSTORE PUSH32 0x4552433732313A206D696E7420746F20746865207A65726F2061646472657373 PUSH1 0x44 DUP3 ADD MSTORE PUSH1 0x64 ADD PUSH2 0x926 JUMP JUMPDEST PUSH1 0x0 DUP2 DUP2 MSTORE PUSH1 0x2 PUSH1 0x20 MSTORE PUSH1 0x40 SWAP1 KECCAK256 SLOAD PUSH20 0xFFFFFFFFFFFFFFFFFFFFFFFFFFFFFFFFFFFFFFFF AND ISZERO PUSH2 0x1F8F JUMPI PUSH1 0x40 MLOAD PUSH32 0x8C379A000000000000000000000000000000000000000000000000000000000 DUP2 MSTORE PUSH1 0x20 PUSH1 0x4 DUP3 ADD MSTORE PUSH1 0x1C PUSH1 0x24 DUP3 ADD MSTORE PUSH32 0x4552433732313A20746F6B656E20616C7265616479206D696E74656400000000 PUSH1 0x44 DUP3 ADD MSTORE PUSH1 0x64 ADD PUSH2 0x926 JUMP JUMPDEST PUSH2 0x1F9B PUSH1 0x0 DUP4 DUP4 PUSH2 0x1B81 JUMP JUMPDEST PUSH20 0xFFFFFFFFFFFFFFFFFFFFFFFFFFFFFFFFFFFFFFFF DUP3 AND PUSH1 0x0 SWAP1 DUP2 MSTORE PUSH1 0x3 PUSH1 0x20 MSTORE PUSH1 0x40 DUP2 KECCAK256 DUP1 SLOAD PUSH1 0x1 SWAP3 SWAP1 PUSH2 0x1FD1 SWAP1 DUP5 SWAP1 PUSH2 0x26C4 JUMP JUMPDEST SWAP1 SWAP2 SSTORE POP POP PUSH1 0x0 DUP2 DUP2 MSTORE PUSH1 0x2 PUSH1 0x20 MSTORE PUSH1 0x40 DUP1 DUP3 KECCAK256 DUP1 SLOAD PUSH32 0xFFFFFFFFFFFFFFFFFFFFFFFF0000000000000000000000000000000000000000 AND PUSH20 0xFFFFFFFFFFFFFFFFFFFFFFFFFFFFFFFFFFFFFFFF DUP7 AND SWAP1 DUP2 OR SWAP1 SWAP2 SSTORE SWAP1 MLOAD DUP4 SWAP3 SWAP1 PUSH32 0xDDF252AD1BE2C89B69C2B068FC378DAA952BA7F163C4A11628F55A4DF523B3EF SWAP1 DUP3 SWAP1 LOG4 POP POP JUMP JUMPDEST PUSH32 0xFFFFFFFF00000000000000000000000000000000000000000000000000000000 DUP2 AND DUP2 EQ PUSH2 0xBF0 JUMPI PUSH1 0x0 DUP1 REVERT JUMPDEST PUSH1 0x0 PUSH1 0x20 DUP3 DUP5 SUB SLT ISZERO PUSH2 0x2094 JUMPI PUSH1 0x0 DUP1 REVERT JUMPDEST DUP2 CALLDATALOAD PUSH2 0x1127 DUP2 PUSH2 0x2054 JUMP JUMPDEST PUSH1 0x0 JUMPDEST DUP4 DUP2 LT ISZERO PUSH2 0x20BA JUMPI DUP2 DUP2 ADD MLOAD DUP4 DUP3 ADD MSTORE PUSH1 0x20 ADD PUSH2 0x20A2 JUMP JUMPDEST POP POP PUSH1 0x0 SWAP2 ADD MSTORE JUMP JUMPDEST PUSH1 0x0 DUP2 MLOAD DUP1 DUP5 MSTORE PUSH2 0x20DB DUP2 PUSH1 0x20 DUP7 ADD PUSH1 0x20 DUP7 ADD PUSH2 0x209F JUMP JUMPDEST PUSH1 0x1F ADD PUSH32 0xFFFFFFFFFFFFFFFFFFFFFFFFFFFFFFFFFFFFFFFFFFFFFFFFFFFFFFFFFFFFFFE0 AND SWAP3 SWAP1 SWAP3 ADD PUSH1 0x20 ADD SWAP3 SWAP2 POP POP JUMP JUMPDEST PUSH1 0x20 DUP2 MSTORE PUSH1 0x0 PUSH2 0x1127 PUSH1 0x20 DUP4 ADD DUP5 PUSH2 0x20C3 JUMP JUMPDEST PUSH1 0x0 PUSH1 0x20 DUP3 DUP5 SUB SLT ISZERO PUSH2 0x2132 JUMPI PUSH1 0x0 DUP1 REVERT JUMPDEST POP CALLDATALOAD SWAP2 SWAP1 POP JUMP JUMPDEST PUSH20 0xFFFFFFFFFFFFFFFFFFFFFFFFFFFFFFFFFFFFFFFF DUP2 AND DUP2 EQ PUSH2 0xBF0 JUMPI PUSH1 0x0 DUP1 REVERT JUMPDEST PUSH1 0x0 DUP1 PUSH1 0x40 DUP4 DUP6 SUB SLT ISZERO PUSH2 0x216E JUMPI PUSH1 0x0 DUP1 REVERT JUMPDEST DUP3 CALLDATALOAD PUSH2 0x2179 DUP2 PUSH2 0x2139 JUMP JUMPDEST SWAP5 PUSH1 0x20 SWAP4 SWAP1 SWAP4 ADD CALLDATALOAD SWAP4 POP POP POP JUMP JUMPDEST PUSH1 0x0 PUSH1 0x20 DUP3 DUP5 SUB SLT ISZERO PUSH2 0x2199 JUMPI PUSH1 0x0 DUP1 REVERT JUMPDEST DUP2 CALLDATALOAD PUSH2 0x1127 DUP2 PUSH2 0x2139 JUMP JUMPDEST PUSH1 0x0 DUP1 PUSH1 0x0 PUSH1 0x60 DUP5 DUP7 SUB SLT ISZERO PUSH2 0x21B9 JUMPI PUSH1 0x0 DUP1 REVERT JUMPDEST DUP4 CALLDATALOAD PUSH2 0x21C4 DUP2 PUSH2 0x2139 JUMP JUMPDEST SWAP3 POP PUSH1 0x20 DUP5 ADD CALLDATALOAD PUSH2 0x21D4 DUP2 PUSH2 0x2139 JUMP JUMPDEST SWAP3 SWAP6 SWAP3 SWAP5 POP POP POP PUSH1 0x40 SWAP2 SWAP1 SWAP2 ADD CALLDATALOAD SWAP1 JUMP JUMPDEST PUSH1 0x0 DUP1 PUSH1 0x20 DUP4 DUP6 SUB SLT ISZERO PUSH2 0x21F8 JUMPI PUSH1 0x0 DUP1 REVERT JUMPDEST DUP3 CALLDATALOAD PUSH8 0xFFFFFFFFFFFFFFFF DUP1 DUP3 GT ISZERO PUSH2 0x2210 JUMPI PUSH1 0x0 DUP1 REVERT JUMPDEST DUP2 DUP6 ADD SWAP2 POP DUP6 PUSH1 0x1F DUP4 ADD SLT PUSH2 0x2224 JUMPI PUSH1 0x0 DUP1 REVERT JUMPDEST DUP2 CALLDATALOAD DUP2 DUP2 GT ISZERO PUSH2 0x2233 JUMPI PUSH1 0x0 DUP1 REVERT JUMPDEST DUP7 PUSH1 0x20 DUP3 DUP6 ADD ADD GT ISZERO PUSH2 0x2245 JUMPI PUSH1 0x0 DUP1 REVERT JUMPDEST PUSH1 0x20 SWAP3 SWAP1 SWAP3 ADD SWAP7 SWAP2 SWAP6 POP SWAP1 SWAP4 POP POP POP POP JUMP JUMPDEST DUP1 CALLDATALOAD DUP1 ISZERO ISZERO DUP2 EQ PUSH2 0x2267 JUMPI PUSH1 0x0 DUP1 REVERT JUMPDEST SWAP2 SWAP1 POP JUMP JUMPDEST PUSH1 0x0 DUP1 PUSH1 0x40 DUP4 DUP6 SUB SLT ISZERO PUSH2 0x227F JUMPI PUSH1 0x0 DUP1 REVERT JUMPDEST DUP3 CALLDATALOAD PUSH2 0x228A DUP2 PUSH2 0x2139 JUMP JUMPDEST SWAP2 POP PUSH2 0x2298 PUSH1 0x20 DUP5 ADD PUSH2 0x2257 JUMP JUMPDEST SWAP1 POP SWAP3 POP SWAP3 SWAP1 POP JUMP JUMPDEST PUSH32 0x4E487B7100000000000000000000000000000000000000000000000000000000 PUSH1 0x0 MSTORE PUSH1 0x41 PUSH1 0x4 MSTORE PUSH1 0x24 PUSH1 0x0 REVERT JUMPDEST PUSH1 0x40 MLOAD PUSH1 0x1F DUP3 ADD PUSH32 0xFFFFFFFFFFFFFFFFFFFFFFFFFFFFFFFFFFFFFFFFFFFFFFFFFFFFFFFFFFFFFFE0 AND DUP2 ADD PUSH8 0xFFFFFFFFFFFFFFFF DUP2 GT DUP3 DUP3 LT OR ISZERO PUSH2 0x2317 JUMPI PUSH2 0x2317 PUSH2 0x22A1 JUMP JUMPDEST PUSH1 0x40 MSTORE SWAP2 SWAP1 POP JUMP JUMPDEST PUSH1 0x0 DUP1 PUSH1 0x0 DUP1 PUSH1 0x80 DUP6 DUP8 SUB SLT ISZERO PUSH2 0x2335 JUMPI PUSH1 0x0 DUP1 REVERT JUMPDEST DUP5 CALLDATALOAD PUSH2 0x2340 DUP2 PUSH2 0x2139 JUMP JUMPDEST SWAP4 POP PUSH1 0x20 DUP6 DUP2 ADD CALLDATALOAD PUSH2 0x2351 DUP2 PUSH2 0x2139 JUMP JUMPDEST SWAP4 POP PUSH1 0x40 DUP7 ADD CALLDATALOAD SWAP3 POP PUSH1 0x60 DUP7 ADD CALLDATALOAD PUSH8 0xFFFFFFFFFFFFFFFF DUP1 DUP3 GT ISZERO PUSH2 0x2375 JUMPI PUSH1 0x0 DUP1 REVERT JUMPDEST DUP2 DUP9 ADD SWAP2 POP DUP9 PUSH1 0x1F DUP4 ADD SLT PUSH2 0x2389 JUMPI PUSH1 0x0 DUP1 REVERT JUMPDEST DUP2 CALLDATALOAD DUP2 DUP2 GT ISZERO PUSH2 0x239B JUMPI PUSH2 0x239B PUSH2 0x22A1 JUMP JUMPDEST PUSH2 0x23CB DUP5 PUSH32 0xFFFFFFFFFFFFFFFFFFFFFFFFFFFFFFFFFFFFFFFFFFFFFFFFFFFFFFFFFFFFFFE0 PUSH1 0x1F DUP5 ADD AND ADD PUSH2 0x22D0 JUMP JUMPDEST SWAP2 POP DUP1 DUP3 MSTORE DUP10 DUP5 DUP3 DUP6 ADD ADD GT ISZERO PUSH2 0x23E1 JUMPI PUSH1 0x0 DUP1 REVERT JUMPDEST DUP1 DUP5 DUP5 ADD DUP6 DUP5 ADD CALLDATACOPY PUSH1 0x0 DUP5 DUP3 DUP5 ADD ADD MSTORE POP DUP1 SWAP4 POP POP POP POP SWAP3 SWAP6 SWAP2 SWAP5 POP SWAP3 POP JUMP JUMPDEST PUSH1 0x0 PUSH1 0x20 DUP3 DUP5 SUB SLT ISZERO PUSH2 0x2413 JUMPI PUSH1 0x0 DUP1 REVERT JUMPDEST PUSH2 0x1127 DUP3 PUSH2 0x2257 JUMP JUMPDEST PUSH1 0x0 DUP1 PUSH1 0x40 DUP4 DUP6 SUB SLT ISZERO PUSH2 0x242F JUMPI PUSH1 0x0 DUP1 REVERT JUMPDEST DUP3 CALLDATALOAD PUSH2 0x243A DUP2 PUSH2 0x2139 JUMP JUMPDEST SWAP2 POP PUSH1 0x20 DUP4 ADD CALLDATALOAD PUSH2 0x244A DUP2 PUSH2 0x2139 JUMP JUMPDEST DUP1 SWAP2 POP POP SWAP3 POP SWAP3 SWAP1 POP JUMP JUMPDEST PUSH1 0x1 DUP2 DUP2 SHR SWAP1 DUP3 AND DUP1 PUSH2 0x2469 JUMPI PUSH1 0x7F DUP3 AND SWAP2 POP JUMPDEST PUSH1 0x20 DUP3 LT DUP2 SUB PUSH2 0x24A2 JUMPI PUSH32 0x4E487B7100000000000000000000000000000000000000000000000000000000 PUSH1 0x0 MSTORE PUSH1 0x22 PUSH1 0x4 MSTORE PUSH1 0x24 PUSH1 0x0 REVERT JUMPDEST POP SWAP2 SWAP1 POP JUMP JUMPDEST PUSH1 0x1F DUP3 GT ISZERO PUSH2 0xA19 JUMPI PUSH1 0x0 DUP2 DUP2 MSTORE PUSH1 0x20 DUP2 KECCAK256 PUSH1 0x1F DUP6 ADD PUSH1 0x5 SHR DUP2 ADD PUSH1 0x20 DUP7 LT ISZERO PUSH2 0x24CF JUMPI POP DUP1 JUMPDEST PUSH1 0x1F DUP6 ADD PUSH1 0x5 SHR DUP3 ADD SWAP2 POP JUMPDEST DUP2 DUP2 LT ISZERO PUSH2 0x24EE JUMPI DUP3 DUP2 SSTORE PUSH1 0x1 ADD PUSH2 0x24DB JUMP JUMPDEST POP POP POP POP POP POP JUMP JUMPDEST PUSH8 0xFFFFFFFFFFFFFFFF DUP4 GT ISZERO PUSH2 0x250E JUMPI PUSH2 0x250E PUSH2 0x22A1 JUMP JUMPDEST PUSH2 0x2522 DUP4 PUSH2 0x251C DUP4 SLOAD PUSH2 0x2455 JUMP JUMPDEST DUP4 PUSH2 0x24A8 JUMP JUMPDEST PUSH1 0x0 PUSH1 0x1F DUP5 GT PUSH1 0x1 DUP2 EQ PUSH2 0x2574 JUMPI PUSH1 0x0 DUP6 ISZERO PUSH2 0x253E JUMPI POP DUP4 DUP3 ADD CALLDATALOAD JUMPDEST PUSH32 0xFFFFFFFFFFFFFFFFFFFFFFFFFFFFFFFFFFFFFFFFFFFFFFFFFFFFFFFFFFFFFFFF PUSH1 0x3 DUP8 SWAP1 SHL SHR NOT AND PUSH1 0x1 DUP7 SWAP1 SHL OR DUP4 SSTORE PUSH2 0x260A JUMP JUMPDEST PUSH1 0x0 DUP4 DUP2 MSTORE PUSH1 0x20 SWAP1 KECCAK256 PUSH32 0xFFFFFFFFFFFFFFFFFFFFFFFFFFFFFFFFFFFFFFFFFFFFFFFFFFFFFFFFFFFFFFE0 DUP7 AND SWAP1 DUP4 JUMPDEST DUP3 DUP2 LT ISZERO PUSH2 0x25C3 JUMPI DUP7 DUP6 ADD CALLDATALOAD DUP3 SSTORE PUSH1 0x20 SWAP5 DUP6 ADD SWAP5 PUSH1 0x1 SWAP1 SWAP3 ADD SWAP2 ADD PUSH2 0x25A3 JUMP JUMPDEST POP DUP7 DUP3 LT ISZERO PUSH2 0x25FE JUMPI PUSH32 0xFFFFFFFFFFFFFFFFFFFFFFFFFFFFFFFFFFFFFFFFFFFFFFFFFFFFFFFFFFFFFFFF PUSH1 0xF8 DUP9 PUSH1 0x3 SHL AND SHR NOT DUP5 DUP8 ADD CALLDATALOAD AND DUP2 SSTORE JUMPDEST POP POP PUSH1 0x1 DUP6 PUSH1 0x1 SHL ADD DUP4 SSTORE JUMPDEST POP POP POP POP POP JUMP JUMPDEST PUSH1 0x0 PUSH1 0x20 DUP3 DUP5 SUB SLT ISZERO PUSH2 0x2623 JUMPI PUSH1 0x0 DUP1 REVERT JUMPDEST PUSH1 0x40 MLOAD PUSH1 0x20 DUP2 ADD DUP2 DUP2 LT PUSH8 0xFFFFFFFFFFFFFFFF DUP3 GT OR ISZERO PUSH2 0x2646 JUMPI PUSH2 0x2646 PUSH2 0x22A1 JUMP JUMPDEST PUSH1 0x40 MSTORE SWAP2 MLOAD DUP3 MSTORE POP SWAP2 SWAP1 POP JUMP JUMPDEST PUSH1 0x0 DUP4 MLOAD PUSH2 0x2665 DUP2 DUP5 PUSH1 0x20 DUP9 ADD PUSH2 0x209F JUMP JUMPDEST DUP4 MLOAD SWAP1 DUP4 ADD SWAP1 PUSH2 0x2679 DUP2 DUP4 PUSH1 0x20 DUP9 ADD PUSH2 0x209F JUMP JUMPDEST ADD SWAP5 SWAP4 POP POP POP POP JUMP JUMPDEST PUSH32 0x4E487B7100000000000000000000000000000000000000000000000000000000 PUSH1 0x0 MSTORE PUSH1 0x11 PUSH1 0x4 MSTORE PUSH1 0x24 PUSH1 0x0 REVERT JUMPDEST DUP2 DUP2 SUB DUP2 DUP2 GT ISZERO PUSH2 0x796 JUMPI PUSH2 0x796 PUSH2 0x2682 JUMP JUMPDEST DUP1 DUP3 ADD DUP1 DUP3 GT ISZERO PUSH2 0x796 JUMPI PUSH2 0x796 PUSH2 0x2682 JUMP JUMPDEST PUSH1 0x0 PUSH32 0xFFFFFFFFFFFFFFFFFFFFFFFFFFFFFFFFFFFFFFFFFFFFFFFFFFFFFFFFFFFFFFFF DUP3 SUB PUSH2 0x2708 JUMPI PUSH2 0x2708 PUSH2 0x2682 JUMP JUMPDEST POP PUSH1 0x1 ADD SWAP1 JUMP JUMPDEST PUSH32 0x4E487B7100000000000000000000000000000000000000000000000000000000 PUSH1 0x0 MSTORE PUSH1 0x12 PUSH1 0x4 MSTORE PUSH1 0x24 PUSH1 0x0 REVERT JUMPDEST PUSH1 0x0 DUP3 PUSH2 0x274D JUMPI PUSH2 0x274D PUSH2 0x270F JUMP JUMPDEST POP DIV SWAP1 JUMP JUMPDEST PUSH1 0x0 DUP3 PUSH2 0x2761 JUMPI PUSH2 0x2761 PUSH2 0x270F JUMP JUMPDEST POP MOD SWAP1 JUMP JUMPDEST PUSH32 0x4E487B7100000000000000000000000000000000000000000000000000000000 PUSH1 0x0 MSTORE PUSH1 0x32 PUSH1 0x4 MSTORE PUSH1 0x24 PUSH1 0x0 REVERT JUMPDEST PUSH1 0x0 PUSH20 0xFFFFFFFFFFFFFFFFFFFFFFFFFFFFFFFFFFFFFFFF DUP1 DUP8 AND DUP4 MSTORE DUP1 DUP7 AND PUSH1 0x20 DUP5 ADD MSTORE POP DUP4 PUSH1 0x40 DUP4 ADD MSTORE PUSH1 0x80 PUSH1 0x60 DUP4 ADD MSTORE PUSH2 0x27D4 PUSH1 0x80 DUP4 ADD DUP5 PUSH2 0x20C3 JUMP JUMPDEST SWAP7 SWAP6 POP POP POP POP POP POP JUMP JUMPDEST PUSH1 0x0 PUSH1 0x20 DUP3 DUP5 SUB SLT ISZERO PUSH2 0x27F0 JUMPI PUSH1 0x0 DUP1 REVERT JUMPDEST DUP2 MLOAD PUSH2 0x1127 DUP2 PUSH2 0x2054 JUMP INVALID LOG2 PUSH5 0x6970667358 0x22 SLT KECCAK256 0x4F BLOCKHASH 0xED CHAINID DUP5 STOP 0xB9 BYTE SWAP2 0xCD SAR XOR PUSH15 0x7A0D8B62B7A21761909E470A77A5F5 LOG2 0x29 PUSH3 0x846473 PUSH16 0x6C63430008110033696D706F72742072 PUSH2 0x6E64 PUSH16 0x6D0A66726F6D2073616D696C612E6675 PUSH15 0x6374696F6E7320696D706F72742069 PUSH20 0x5F76616C69645F636F6C6F722061732069735F76 PUSH2 0x6C69 PUSH5 0x5F636F6C6F PUSH19 0xA0A6465662072616E645F636D6170286E6C61 PUSH3 0x656C73 0x2C KECCAK256 PUSH21 0x7970653D27627269676874272C20766572626F7365 RETURNDATASIZE SLOAD PUSH19 0x7565293A0A202020202222220A202020204372 PUSH6 0x617465732061 KECCAK256 PUSH19 0x616E646F6D20636F6C6F726D617020746F2062 PUSH6 0x207573656420 PUSH21 0x6F6765746865722077697468206D6174706C6F746C PUSH10 0x622E2055736566756C20 PUSH7 0x6F72207365676D PUSH6 0x6E746174696F PUSH15 0x207461736B730A202020203A706172 PUSH2 0x6D20 PUSH15 0x6C6162656C733A204E756D62657220 PUSH16 0x66206C6162656C73202873697A65206F PUSH7 0x20636F6C6F726D PUSH2 0x7029 EXP KECCAK256 KECCAK256 KECCAK256 KECCAK256 GASPRICE PUSH17 0x6172616D20747970653A20276272696768 PUSH21 0x2720666F72207374726F6E6720636F6C6F72732C20 0x27 PUSH20 0x6F66742720666F722070617374656C20636F6C6F PUSH19 0x730A202020203A706172616D20766572626F73 PUSH6 0x3A205072696E PUSH21 0x7320746865206E756D626572206F66206C6162656C PUSH20 0x20616E642073686F77732074686520636F6C6F72 PUSH14 0x61702E2054727565206F72204661 PUSH13 0x73650A202020203A7265747572 PUSH15 0x3A20636F6C6F726D617020666F7220 PUSH14 0x6174706C6F746C69620A20202020 0x22 0x22 0x22 EXP KECCAK256 KECCAK256 KECCAK256 KECCAK256 PUSH10 0x6D706F727420636F6C6F PUSH19 0x7379730A20202020696D706F7274206E756D70 PUSH26 0x206173206E700A0A0A2020202069662074797065206E6F742069 PUSH15 0x202827627269676874272C2027736F PUSH7 0x7427293A0A2020 KECCAK256 KECCAK256 KECCAK256 KECCAK256 KECCAK256 KECCAK256 PUSH17 0x72696E74202827506C656173652063686F PUSH16 0x7365202262726967687422206F722022 PUSH20 0x6F66742220666F72207479706527290A20202020 KECCAK256 KECCAK256 KECCAK256 KECCAK256 PUSH19 0x657475726E0A0A20202020696620766572626F PUSH20 0x653A0A20202020202020207072696E7428274E75 PUSH14 0x626572206F66206C6162656C733A KECCAK256 0x27 KECCAK256 0x2B KECCAK256 PUSH20 0x7472286E6C6162656C7329290A0A202020202320 SELFBALANCE PUSH6 0x6E6572617465 KECCAK256 PUSH4 0x6F6C6F72 KECCAK256 PUSH14 0x617020666F722062726967687420 PUSH4 0x6F6C6F72 PUSH20 0x2C206261736564206F6E206873760A2020202069 PUSH7 0x2074797065203D RETURNDATASIZE KECCAK256 0x27 PUSH3 0x726967 PUSH9 0x74273A0A2020202020 KECCAK256 KECCAK256 KECCAK256 PUSH19 0x616E64485356636F6C6F7273203D205B286E70 0x2E PUSH19 0x616E646F6D2E756E69666F726D286C6F773D30 0x2E ADDRESS 0x2C KECCAK256 PUSH9 0x6967683D31292C0A20 KECCAK256 KECCAK256 KECCAK256 KECCAK256 KECCAK256 KECCAK256 KECCAK256 KECCAK256 KECCAK256 KECCAK256 KECCAK256 KECCAK256 KECCAK256 KECCAK256 KECCAK256 KECCAK256 KECCAK256 KECCAK256 KECCAK256 KECCAK256 KECCAK256 KECCAK256 KECCAK256 KECCAK256 KECCAK256 PUSH15 0x702E72616E646F6D2E756E69666F72 PUSH14 0x286C6F773D302E302C2068696768 RETURNDATASIZE BALANCE 0x29 0x2C EXP KECCAK256 KECCAK256 KECCAK256 KECCAK256 KECCAK256 KECCAK256 KECCAK256 KECCAK256 KECCAK256 KECCAK256 KECCAK256 KECCAK256 KECCAK256 KECCAK256 KECCAK256 KECCAK256 KECCAK256 KECCAK256 KECCAK256 KECCAK256 KECCAK256 KECCAK256 KECCAK256 KECCAK256 KECCAK256 KECCAK256 PUSH15 0x702E72616E646F6D2E756E69666F72 PUSH14 0x286C6F773D302E302C2068696768 RETURNDATASIZE BALANCE 0x29 0x29 KECCAK256 PUSH7 0x6F72206920696E KECCAK256 PUSH19 0x616E6765286E6C6162656C73295D0A0A202020 KECCAK256 KECCAK256 KECCAK256 KECCAK256 KECCAK256 0x23 KECCAK256 NUMBER PUSH16 0x6E7665727420485356206C6973742074 PUSH16 0x205247420A202020202020202072616E PUSH5 0x524742636F PUSH13 0x6F7273203D205B5D0A20202020 KECCAK256 KECCAK256 KECCAK256 KECCAK256 PUSH7 0x6F722048535663 PUSH16 0x6C6F7220696E2072616E64485356636F PUSH13 0x6F72733A0A2020202020202020 KECCAK256 KECCAK256 KECCAK256 KECCAK256 PUSH19 0x616E64524742636F6C6F72203D20636F6C6F72 PUSH20 0x79732E6873765F746F5F72676228485356636F6C PUSH16 0x725B305D2C20485356636F6C6F725B31 0x5D 0x2C KECCAK256 BASEFEE MSTORE8 JUMP PUSH4 0x6F6C6F72 JUMPDEST ORIGIN 0x5D 0x29 EXP KECCAK256 KECCAK256 KECCAK256 KECCAK256 KECCAK256 KECCAK256 KECCAK256 KECCAK256 KECCAK256 KECCAK256 KECCAK256 KECCAK256 PUSH10 0x662069735F76616C6964 0x5F PUSH4 0x6F6C6F72 0x28 PUSH19 0x616E64524742636F6C6F72293A0A2020202020 KECCAK256 KECCAK256 KECCAK256 KECCAK256 KECCAK256 KECCAK256 KECCAK256 KECCAK256 KECCAK256 KECCAK256 KECCAK256 PUSH19 0x616E64524742636F6C6F72732E617070656E64 0x28 PUSH19 0x616E64524742636F6C6F72290A0A0A20202020 0x23 KECCAK256 SELFBALANCE PUSH6 0x6E6572617465 KECCAK256 PUSH20 0x6F66742070617374656C20636F6C6F72732C2062 PUSH26 0x206C696D6974696E67207468652052474220737065637472756D EXP KECCAK256 KECCAK256 KECCAK256 KECCAK256 PUSH10 0x662074797065203D3D20 0x27 PUSH20 0x6F6674273A0A20202020202020206C6F77203D20 ADDRESS 0x2E CALLDATASIZE EXP KECCAK256 KECCAK256 KECCAK256 KECCAK256 KECCAK256 KECCAK256 KECCAK256 KECCAK256 PUSH9 0x696768203D20302E39 CALLDATALOAD EXP KECCAK256 KECCAK256 KECCAK256 KECCAK256 KECCAK256 KECCAK256 KECCAK256 KECCAK256 PUSH19 0x616E64524742636F6C6F7273203D206C697374 0x28 PUSH7 0x696C7465722869 PUSH20 0x5F76616C69645F636F6C6F722C205B286E702E72 PUSH2 0x6E64 PUSH16 0x6D2E756E69666F726D286C6F773D6C6F PUSH24 0x2C20686967683D6869676829202A2A20322C0A2020202020 KECCAK256 KECCAK256 KECCAK256 KECCAK256 KECCAK256 KECCAK256 KECCAK256 KECCAK256 KECCAK256 KECCAK256 KECCAK256 KECCAK256 KECCAK256 KECCAK256 KECCAK256 KECCAK256 KECCAK256 KECCAK256 KECCAK256 KECCAK256 KECCAK256 PUSH15 0x702E72616E646F6D2E756E69666F72 PUSH14 0x286C6F773D6C6F772C2068696768 RETURNDATASIZE PUSH9 0x69676829202A2A2032 0x2C EXP KECCAK256 KECCAK256 KECCAK256 KECCAK256 KECCAK256 KECCAK256 KECCAK256 KECCAK256 KECCAK256 KECCAK256 KECCAK256 KECCAK256 KECCAK256 KECCAK256 KECCAK256 KECCAK256 KECCAK256 KECCAK256 KECCAK256 KECCAK256 KECCAK256 KECCAK256 KECCAK256 KECCAK256 KECCAK256 KECCAK256 PUSH15 0x702E72616E646F6D2E756E69666F72 PUSH14 0x286C6F773D6C6F772C2068696768 RETURNDATASIZE PUSH9 0x69676829202A2A2032 0x29 KECCAK256 PUSH7 0x6F72206920696E KECCAK256 PUSH19 0x616E6765286E6C6162656C73295D29290A0A0A KECCAK256 KECCAK256 KECCAK256 KECCAK256 PUSH7 0x6F7220636F6C6F PUSH19 0x20696E2072616E64524742636F6C6F72733A0A KECCAK256 KECCAK256 KECCAK256 KECCAK256 KECCAK256 KECCAK256 KECCAK256 KECCAK256 PUSH10 0x66206C656E28636F6C6F PUSH19 0x2920213D20333A0A2020202020202020202020 KECCAK256 PUSH19 0x616E64524742636F6C6F72732E72656D6F7665 0x28 PUSH4 0x6F6C6F72 0x29 EXP EXP KECCAK256 KECCAK256 KECCAK256 KECCAK256 PUSH19 0x657475726E2072616E64524742636F6C6F7273 EXP EXP EXP PUSH5 0x6566206765 PUSH21 0x5F72616E646F6D5F636D6170286C656E6774683D32 ADDRESS 0x29 GASPRICE EXP KECCAK256 KECCAK256 KECCAK256 KECCAK256 PUSH15 0x65775F636D6170203D2072616E645F PUSH4 0x6D617028 PUSH10 0x6E74286C656E6774682F ORIGIN 0x29 0x2C KECCAK256 PUSH21 0x7970653D72616E646F6D2E63686F696365285B2773 PUSH16 0x6674272C2027627269676874275D2929 EXP KECCAK256 KECCAK256 KECCAK256 KECCAK256 PUSH15 0x65775F636D6170203D206E65775F63 PUSH14 0x6170202B2072616E645F636D6170 0x28 PUSH10 0x6E74286C656E6774682F CALLDATALOAD 0x29 0x2C KECCAK256 PUSH21 0x7970653D72616E646F6D2E63686F696365285B2773 PUSH16 0x6674272C2027627269676874275D2929 EXP KECCAK256 KECCAK256 KECCAK256 KECCAK256 PUSH19 0x616E646F6D2E73687566666C65286E65775F63 PUSH14 0x6170290A2020202072657475726E KECCAK256 PUSH15 0x65775F636D61700A66726F6D205049 0x4C KECCAK256 PUSH10 0x6D706F727420496D6167 PUSH6 0xA696D706F72 PUSH21 0x206D6174682C2072616E646F6D0A66726F6D207361 PUSH14 0x696C6120696D706F72742047656E PUSH6 0x726174697665 0x49 PUSH14 0x6167652C2050726F6A656374696F PUSH15 0xA696D706F7274206F730A66726F6D KECCAK256 PUSH4 0x6D61705F PUSH22 0x74696C7320696D706F7274206765745F72616E646F6D 0x5F PUSH4 0x6D61700A PUSH7 0x726F6D20636F6E PUSH20 0x74616E747320696D706F727420454C454D454E54 MSTORE8 EXP EXP EXP PUSH5 0x6566206631 0x28 PUSH25 0x2C2079293A0A20202020726573756C74203D2072616E646F6D 0x2E PUSH22 0x6E69666F726D282D312C3129202A20782A2A3220202D KECCAK256 PUSH14 0x6174682E73696E28792A2A322920 0x2B KECCAK256 PUSH2 0x6273 0x28 PUSH26 0x2D78290A2020202072657475726E20726573756C740A0A646566 KECCAK256 PUSH7 0x3228782C207929 GASPRICE EXP KECCAK256 KECCAK256 KECCAK256 KECCAK256 PUSH19 0x6573756C74203D2072616E646F6D2E756E6966 PUSH16 0x726D282D312C3129202A20792A2A3320 0x2D KECCAK256 PUSH14 0x6174682E636F7328782A2A322920 0x2B KECCAK256 ORIGIN 0x2A PUSH25 0xA2020202072657475726E20726573756C740A0A0A64656620 PUSH8 0x65745F696D616765 0x28 PUSH20 0x656564732C20736176655F746F5F666F6C646572 0x2C KECCAK256 PUSH4 0x6F6C6F72 PUSH20 0x293A0A202020202222222046756C6C7920646574 PUSH6 0x726D696E6973 PUSH21 0x69632066756E6374696F6E20666F7220726570726F PUSH5 0x756369626C PUSH26 0x2067656E65726174696E6720612073696E676C650A2020202020 KECCAK256 KECCAK256 KECCAK256 COINBASE PUSH21 0x6F6D6963204E465420504E472066726F6D2061206C PUSH10 0x7374206F662072616E64 PUSH16 0x6D2073656564732E202222220A202020 KECCAK256 PUSH16 0x732E73797374656D28226D6B64697220 0x2D PUSH17 0x2025732220252028736176655F746F5F66 PUSH16 0x6C64657229290A202020206F70656E28 0x22 0x25 PUSH20 0x2F646174612220252028736176655F746F5F666F PUSH13 0x646572292C20277727292E7772 PUSH10 0x7465282225735C6E2573 0x22 KECCAK256 0x25 KECCAK256 0x28 PUSH20 0x7472287365656473292C2073747228636F6C6F72 PUSH20 0x2929290A20202020666F7220736565645F696E64 PUSH6 0x7820696E2072 PUSH2 0x6E67 PUSH6 0x286C656E2873 PUSH6 0x65647329293A EXP KECCAK256 KECCAK256 KECCAK256 KECCAK256 KECCAK256 KECCAK256 KECCAK256 KECCAK256 0x23 KECCAK256 SELFBALANCE PUSH6 0x6E6572617465 KECCAK256 PUSH4 0x6F6D706F PUSH15 0x656E7420696D616765732C206F6E65 KECCAK256 PUSH7 0x6F722065616368 KECCAK256 PUSH20 0x6565642E2053617665206561636820636F6D706F PUSH15 0x656E74206C6F63616C6C792E0A2020 KECCAK256 KECCAK256 KECCAK256 KECCAK256 KECCAK256 KECCAK256 PUSH20 0x656564203D2073656564735B736565645F696E64 PUSH6 0x785D0A202020 KECCAK256 KECCAK256 KECCAK256 KECCAK256 KECCAK256 PUSH8 0x203D2047656E6572 PUSH2 0x7469 PUSH23 0x65496D6167652866312C206632290A2020202020202020 PUSH8 0x2E67656E65726174 PUSH6 0x28736565643D PUSH20 0x656564290A20202020202020207072696E742822 SSTORE PUSH20 0x696E67222C20636F6C6F72735B736565645F696E PUSH5 0x65785D290A KECCAK256 KECCAK256 KECCAK256 KECCAK256 KECCAK256 KECCAK256 KECCAK256 KECCAK256 PUSH8 0x2E706C6F74287072 PUSH16 0x6A656374696F6E3D50726F6A65637469 PUSH16 0x6E2E504F4C41522C20636F6C6F723D63 PUSH16 0x6C6F72735B736565645F696E6465785D 0x2C KECCAK256 PUSH3 0x67636F PUSH13 0x6F723D227472616E7370617265 PUSH15 0x7422290A2020202020202020672E73 PUSH2 0x7665 0x5F PUSH10 0x6D616765282725732F73 PUSH6 0x65645F25645F 0x25 PUSH20 0x2E706E672720252028736176655F746F5F666F6C PUSH5 0x65722C2073 PUSH6 0x65645F696E64 PUSH6 0x782C20736565 PUSH5 0x292C206465 PUSH17 0x74683D36290A0A2020202023204D657267 PUSH6 0x20636F6D706F PUSH15 0x656E747320696E746F20612073696E PUSH8 0x6C65207472616E73 PUSH17 0x6172656E7420504E470A20202020626163 PUSH12 0x67726F756E64203D20496D61 PUSH8 0x652E6F70656E2827 0x25 PUSH20 0x2F736565645F305F25732E706E67272025202873 PUSH2 0x7665 0x5F PUSH21 0x6F5F666F6C6465722C2073656564735B305D29290A KECCAK256 KECCAK256 KECCAK256 KECCAK256 PUSH7 0x6F722073656564 0x5F PUSH10 0x6E64657820696E207261 PUSH15 0x676528312C206C656E287365656473 0x29 0x29 GASPRICE EXP KECCAK256 KECCAK256 KECCAK256 KECCAK256 KECCAK256 KECCAK256 KECCAK256 KECCAK256 PUSH7 0x6F726567726F75 PUSH15 0x64203D20496D6167652E6F70656E28 0x22 0x25 PUSH20 0x2F736565645F25645F25732E706E672220252028 PUSH20 0x6176655F746F5F666F6C6465722C20736565645F PUSH10 0x6E6465782C2073656564 PUSH20 0x5B736565645F696E6465785D29290A2020202020 KECCAK256 KECCAK256 KECCAK256 PUSH3 0x61636B PUSH8 0x726F756E642E7061 PUSH20 0x746528666F726567726F756E642C2028302C2030 0x29 0x2C KECCAK256 PUSH7 0x6F726567726F75 PUSH15 0x64290A202020206261636B67726F75 PUSH15 0x642E73617665282225732F66696E61 PUSH13 0x5F6E66742E706E672220252028 PUSH20 0x6176655F746F5F666F6C64657229290A20202020 PUSH17 0x72696E742822536176656420636F6D706C PUSH6 0x7465204E4654 KECCAK256 PUSH21 0x6F2025732220252028736176655F746F5F666F6C64 PUSH6 0x7229290A0A0A 0x23 KECCAK256 PUSH9 0x617264636F64656420 PUSH20 0x656564203D2064657465726D696E697374696320 PUSH8 0x656E65726174696F PUSH15 0xA6D61696E5F72616E646F6D203D20 PUSH19 0x616E646F6D2E52616E646F6D28363934323029 EXP 0x23 KECCAK256 PUSH8 0x656E657261746520 BALANCE PUSH12 0x20636F6E7472616374730A66 PUSH16 0x72206E66745F6E756D20696E2072616E PUSH8 0x6528302C20323030 0x29 GASPRICE EXP KECCAK256 KECCAK256 KECCAK256 KECCAK256 PUSH5 0x6570746820 RETURNDATASIZE KECCAK256 PUSH10 0x6E74286D61696E5F7261 PUSH15 0x646F6D2E72616E646F6D2829202A20 CODESIZE 0x29 KECCAK256 0x2B KECCAK256 BALANCE EXP KECCAK256 KECCAK256 KECCAK256 KECCAK256 PUSH17 0x72696E7428224465707468222C20646570 PUSH21 0x68290A202020207365656473203D205B5D0A202020 KECCAK256 PUSH4 0x686F7365 PUSH15 0x5F636F6C6F7273203D205B5D0A2020 KECCAK256 KECCAK256 PUSH7 0x6F72206920696E KECCAK256 PUSH19 0x616E676528302C206465707468293A0A202020 KECCAK256 KECCAK256 KECCAK256 KECCAK256 KECCAK256 PUSH20 0x656564203D20696E742831303030303030303030 ADDRESS ADDRESS ADDRESS ADDRESS ADDRESS ADDRESS ADDRESS ADDRESS ADDRESS ADDRESS ADDRESS ADDRESS ADDRESS ADDRESS ADDRESS ADDRESS ADDRESS ADDRESS ADDRESS ADDRESS ADDRESS ADDRESS ADDRESS ADDRESS ADDRESS ADDRESS ADDRESS ADDRESS ADDRESS ADDRESS ADDRESS ADDRESS ADDRESS ADDRESS ADDRESS ADDRESS ADDRESS KECCAK256 0x2A KECCAK256 PUSH14 0x61696E5F72616E646F6D2E72616E PUSH5 0x6F6D282929 EXP KECCAK256 KECCAK256 KECCAK256 KECCAK256 KECCAK256 KECCAK256 KECCAK256 KECCAK256 PUSH20 0x656564732E617070656E642873656564290A2020 KECCAK256 KECCAK256 KECCAK256 KECCAK256 KECCAK256 KECCAK256 PUSH4 0x686F7365 PUSH15 0x5F636F6C6F72732E617070656E6428 PUSH19 0x616E646F6D2E52616E646F6D2873656564292E PUSH4 0x686F6963 PUSH6 0x28454C454D45 0x4E SLOAD MSTORE8 0x29 0x29 EXP KECCAK256 KECCAK256 KECCAK256 KECCAK256 KECCAK256 KECCAK256 KECCAK256 KECCAK256 PUSH14 0x61696E5F72616E646F6D203D2072 PUSH2 0x6E64 PUSH16 0x6D2E52616E646F6D2873656564290A20 KECCAK256 KECCAK256 KECCAK256 PUSH8 0x65745F696D616765 0x28 PUSH20 0x656564732C20226E6674732F61746F6D69635F6E PUSH7 0x74735F25642220 0x25 KECCAK256 0x28 PUSH15 0x66745F6E756D292C2063686F73656E 0x5F PUSH4 0x6F6C6F72 PUSH20 0x290A0A202020207072696E74282246696E697368 PUSH6 0x64204E465422 0x2C KECCAK256 PUSH15 0x66745F6E756D290A00000000000000 "},"methodIdentifiers":{"approve(address,uint256)":"095ea7b3","balanceOf(address)":"70a08231","ckRegistry()":"90b68bee","collectionSize()":"45c0f533","contractURI()":"e8a3d485","getApproved(uint256)":"081812fc","isApprovedForAll(address,address)":"e985e9c5","isTrustedCK(address)":"6e865814","mint()":"1249c58b","mintFee()":"13966db5","name()":"06fdde03","openMintingEnabled()":"f812d230","owner()":"8da5cb5b","ownerMint(address)":"1e3bcc8e","ownerOf(uint256)":"6352211e","renounceOwnership()":"715018a6","safeTransferFrom(address,address,uint256)":"42842e0e","safeTransferFrom(address,address,uint256,bytes)":"b88d4fde","setApprovalForAll(address,bool)":"a22cb465","setBaseURI(string)":"55f804b3","setContractURI(string)":"938e3d7b","setMintFee(uint256)":"eddd0d9c","setMintFeeRecipient(address)":"3788fb6a","setOpenMintingEnabled(bool)":"dc3a2e1d","setTrustedVerificationBits(uint256)":"499f052c","sourceCodeAtomicNftPy()":"66f3db07","sourceCodeCmapUtilsPy()":"2901c02c","supportsInterface(bytes4)":"01ffc9a7","symbol()":"95d89b41","tokenURI(uint256)":"c87b56dd","totalSupply()":"18160ddd","transferFrom(address,address,uint256)":"23b872dd","transferOwnership(address)":"f2fde38b","trustedVerificationBits()":"59f6f9b4"}}}}}