{"contracts/AtomicNFTImageGenerationSource.sol":{"AtomicNFTImageGenerationSource":{"abi":[{"inputs":[],"name":"sourceCodeAtomicNftPy","outputs":[{"internalType":"string","name":"","type":"string"}],"stateMutability":"view","type":"function"},{"inputs":[],"name":"sourceCodeCmapUtilsPy","outputs":[{"internalType":"string","name":"","type":"string"}],"stateMutability":"view","type":"function"}],"evm":{"bytecode":{"linkReferences":{},"object":"6108c06040526108166080818152906103bc60a03960009061002190826100fd565b50604051806108c001604052806108918152602001610bd2610891913960019061004b90826100fd565b5034801561005857600080fd5b506101bc565b634e487b7160e01b600052604160045260246000fd5b600181811c9082168061008857607f821691505b6020821081036100a857634e487b7160e01b600052602260045260246000fd5b50919050565b601f8211156100f857600081815260208120601f850160051c810160208610156100d55750805b601f850160051c820191505b818110156100f4578281556001016100e1565b5050505b505050565b81516001600160401b038111156101165761011661005e565b61012a816101248454610074565b846100ae565b602080601f83116001811461015f57600084156101475750858301515b600019600386901b1c1916600185901b1785556100f4565b600085815260208120601f198616915b8281101561018e5788860151825594840194600190910190840161016f565b50858210156101ac5787850151600019600388901b60f8161c191681555b5050505050600190811b01905550565b6101f1806101cb6000396000f3fe608060405234801561001057600080fd5b50600436106100365760003560e01c80632901c02c1461003b57806366f3db0714610059575b600080fd5b610043610061565b60405161005091906100fc565b60405180910390f35b6100436100ef565b6000805461006e90610168565b80601f016020809104026020016040519081016040528092919081815260200182805461009a90610168565b80156100e75780601f106100bc576101008083540402835291602001916100e7565b820191906000526020600020905b8154815290600101906020018083116100ca57829003601f168201915b505050505081565b6001805461006e90610168565b600060208083528351808285015260005b818110156101295785810183015185820160400152820161010d565b5060006040828601015260407fffffffffffffffffffffffffffffffffffffffffffffffffffffffffffffffe0601f8301168501019250505092915050565b600181811c9082168061017c57607f821691505b6020821081036101b5577f4e487b7100000000000000000000000000000000000000000000000000000000600052602260045260246000fd5b5091905056fea26469706673582212209f2b0c1237b71e1d175492f827fee6fe0614000d0474c6e020e76cdf1e42ddb164736f6c63430008110033696d706f72742072616e646f6d0a66726f6d2073616d696c612e66756e6374696f6e7320696d706f72742069735f76616c69645f636f6c6f722061732069735f76616c69645f636f6c6f720a0a6465662072616e645f636d6170286e6c6162656c732c20747970653d27627269676874272c20766572626f73653d54727565293a0a202020202222220a202020204372656174657320612072616e646f6d20636f6c6f726d617020746f206265207573656420746f6765746865722077697468206d6174706c6f746c69622e2055736566756c20666f72207365676d656e746174696f6e207461736b730a202020203a706172616d206e6c6162656c733a204e756d626572206f66206c6162656c73202873697a65206f6620636f6c6f726d6170290a202020203a706172616d20747970653a20276272696768742720666f72207374726f6e6720636f6c6f72732c2027736f66742720666f722070617374656c20636f6c6f72730a202020203a706172616d20766572626f73653a205072696e747320746865206e756d626572206f66206c6162656c7320616e642073686f77732074686520636f6c6f726d61702e2054727565206f722046616c73650a202020203a72657475726e3a20636f6c6f726d617020666f72206d6174706c6f746c69620a202020202222220a20202020696d706f727420636f6c6f727379730a20202020696d706f7274206e756d7079206173206e700a0a0a2020202069662074797065206e6f7420696e202827627269676874272c2027736f667427293a0a20202020202020207072696e74202827506c656173652063686f6f7365202262726967687422206f722022736f66742220666f72207479706527290a202020202020202072657475726e0a0a20202020696620766572626f73653a0a20202020202020207072696e7428274e756d626572206f66206c6162656c733a2027202b20737472286e6c6162656c7329290a0a20202020232047656e657261746520636f6c6f72206d617020666f722062726967687420636f6c6f72732c206261736564206f6e206873760a2020202069662074797065203d3d2027627269676874273a0a202020202020202072616e64485356636f6c6f7273203d205b286e702e72616e646f6d2e756e69666f726d286c6f773d302e302c20686967683d31292c0a20202020202020202020202020202020202020202020202020206e702e72616e646f6d2e756e69666f726d286c6f773d302e302c20686967683d31292c0a20202020202020202020202020202020202020202020202020206e702e72616e646f6d2e756e69666f726d286c6f773d302e302c20686967683d31292920666f72206920696e2072616e6765286e6c6162656c73295d0a0a20202020202020202320436f6e7665727420485356206c69737420746f205247420a202020202020202072616e64524742636f6c6f7273203d205b5d0a2020202020202020666f7220485356636f6c6f7220696e2072616e64485356636f6c6f72733a0a20202020202020202020202072616e64524742636f6c6f72203d20636f6c6f727379732e6873765f746f5f72676228485356636f6c6f725b305d2c20485356636f6c6f725b315d2c20485356636f6c6f725b325d290a20202020202020202020202069662069735f76616c69645f636f6c6f722872616e64524742636f6c6f72293a0a2020202020202020202020202020202072616e64524742636f6c6f72732e617070656e642872616e64524742636f6c6f72290a0a0a20202020232047656e657261746520736f66742070617374656c20636f6c6f72732c206279206c696d6974696e67207468652052474220737065637472756d0a2020202069662074797065203d3d2027736f6674273a0a20202020202020206c6f77203d20302e360a202020202020202068696768203d20302e39350a202020202020202072616e64524742636f6c6f7273203d206c6973742866696c7465722869735f76616c69645f636f6c6f722c205b286e702e72616e646f6d2e756e69666f726d286c6f773d6c6f772c20686967683d6869676829202a2a20322c0a20202020202020202020202020202020202020202020202020206e702e72616e646f6d2e756e69666f726d286c6f773d6c6f772c20686967683d6869676829202a2a20322c0a20202020202020202020202020202020202020202020202020206e702e72616e646f6d2e756e69666f726d286c6f773d6c6f772c20686967683d6869676829202a2a20322920666f72206920696e2072616e6765286e6c6162656c73295d29290a0a0a20202020666f7220636f6c6f7220696e2072616e64524742636f6c6f72733a0a20202020202020206966206c656e28636f6c6f722920213d20333a0a20202020202020202020202072616e64524742636f6c6f72732e72656d6f766528636f6c6f72290a0a2020202072657475726e2072616e64524742636f6c6f72730a0a0a646566206765745f72616e646f6d5f636d6170286c656e6774683d3230293a0a202020206e65775f636d6170203d2072616e645f636d617028696e74286c656e6774682f32292c20747970653d72616e646f6d2e63686f696365285b27736f6674272c2027627269676874275d29290a202020206e65775f636d6170203d206e65775f636d6170202b2072616e645f636d617028696e74286c656e6774682f35292c20747970653d72616e646f6d2e63686f696365285b27736f6674272c2027627269676874275d29290a2020202072616e646f6d2e73687566666c65286e65775f636d6170290a2020202072657475726e206e65775f636d61700a66726f6d2050494c20696d706f727420496d6167650a696d706f7274206d6174682c2072616e646f6d0a66726f6d2073616d696c6120696d706f72742047656e65726174697665496d6167652c2050726f6a656374696f6e0a696d706f7274206f730a66726f6d20636d61705f7574696c7320696d706f7274206765745f72616e646f6d5f636d61700a66726f6d20636f6e7374616e747320696d706f727420454c454d454e54530a0a0a64656620663128782c2079293a0a20202020726573756c74203d2072616e646f6d2e756e69666f726d282d312c3129202a20782a2a3220202d206d6174682e73696e28792a2a3229202b2061627328792d78290a2020202072657475726e20726573756c740a0a64656620663228782c2079293a0a20202020726573756c74203d2072616e646f6d2e756e69666f726d282d312c3129202a20792a2a33202d206d6174682e636f7328782a2a3229202b20322a780a2020202072657475726e20726573756c740a0a0a646566206765745f696d6167652873656564732c20736176655f746f5f666f6c6465722c20636f6c6f7273293a0a202020202222222046756c6c792064657465726d696e69737469632066756e6374696f6e20666f7220726570726f64756369626c792067656e65726174696e6720612073696e676c650a202020202020202041746f6d6963204e465420504e472066726f6d2061206c697374206f662072616e646f6d2073656564732e202222220a202020206f732e73797374656d28226d6b646972202d702025732220252028736176655f746f5f666f6c64657229290a202020206f70656e282225732f646174612220252028736176655f746f5f666f6c646572292c20277727292e7772697465282225735c6e25732220252028737472287365656473292c2073747228636f6c6f72732929290a20202020666f7220736565645f696e64657820696e2072616e6765286c656e28736565647329293a0a2020202020202020232047656e657261746520636f6d706f6e656e7420696d616765732c206f6e6520666f72206561636820736565642e2053617665206561636820636f6d706f6e656e74206c6f63616c6c792e0a202020202020202073656564203d2073656564735b736565645f696e6465785d0a202020202020202067203d2047656e65726174697665496d6167652866312c206632290a2020202020202020672e67656e657261746528736565643d73656564290a20202020202020207072696e7428225573696e67222c20636f6c6f72735b736565645f696e6465785d290a2020202020202020672e706c6f742870726f6a656374696f6e3d50726f6a656374696f6e2e504f4c41522c20636f6c6f723d636f6c6f72735b736565645f696e6465785d2c206267636f6c6f723d227472616e73706172656e7422290a2020202020202020672e736176655f696d616765282725732f736565645f25645f25732e706e672720252028736176655f746f5f666f6c6465722c20736565645f696e6465782c2073656564292c2064657074683d36290a0a2020202023204d6572676520636f6d706f6e656e747320696e746f20612073696e676c65207472616e73706172656e7420504e470a202020206261636b67726f756e64203d20496d6167652e6f70656e282725732f736565645f305f25732e706e672720252028736176655f746f5f666f6c6465722c2073656564735b305d29290a20202020666f7220736565645f696e64657820696e2072616e676528312c206c656e28736565647329293a0a2020202020202020666f726567726f756e64203d20496d6167652e6f70656e282225732f736565645f25645f25732e706e672220252028736176655f746f5f666f6c6465722c20736565645f696e6465782c2073656564735b736565645f696e6465785d29290a20202020202020206261636b67726f756e642e706173746528666f726567726f756e642c2028302c2030292c20666f726567726f756e64290a202020206261636b67726f756e642e73617665282225732f66696e616c5f6e66742e706e672220252028736176655f746f5f666f6c64657229290a202020207072696e742822536176656420636f6d706c657465204e465420746f2025732220252028736176655f746f5f666f6c64657229290a0a0a232068617264636f6465642073656564203d2064657465726d696e69737469632067656e65726174696f6e0a6d61696e5f72616e646f6d203d2072616e646f6d2e52616e646f6d283639343230290a232067656e657261746520316b20636f6e7472616374730a666f72206e66745f6e756d20696e2072616e676528302c20323030293a0a202020206465707468203d20696e74286d61696e5f72616e646f6d2e72616e646f6d2829202a203829202b20310a202020207072696e7428224465707468222c206465707468290a202020207365656473203d205b5d0a2020202063686f73656e5f636f6c6f7273203d205b5d0a20202020666f72206920696e2072616e676528302c206465707468293a0a202020202020202073656564203d20696e74283130303030303030303030303030303030303030303030303030303030303030303030303030303030303030303030202a206d61696e5f72616e646f6d2e72616e646f6d2829290a202020202020202073656564732e617070656e642873656564290a202020202020202063686f73656e5f636f6c6f72732e617070656e642872616e646f6d2e52616e646f6d2873656564292e63686f69636528454c454d454e545329290a20202020202020206d61696e5f72616e646f6d203d2072616e646f6d2e52616e646f6d2873656564290a202020206765745f696d6167652873656564732c20226e6674732f61746f6d69635f6e6674735f256422202520286e66745f6e756d292c2063686f73656e5f636f6c6f7273290a0a202020207072696e74282246696e6973686564204e4654222c206e66745f6e756d290a","opcodes":"PUSH2 0x8C0 PUSH1 0x40 MSTORE PUSH2 0x816 PUSH1 0x80 DUP2 DUP2 MSTORE SWAP1 PUSH2 0x3BC PUSH1 0xA0 CODECOPY PUSH1 0x0 SWAP1 PUSH2 0x21 SWAP1 DUP3 PUSH2 0xFD JUMP JUMPDEST POP PUSH1 0x40 MLOAD DUP1 PUSH2 0x8C0 ADD PUSH1 0x40 MSTORE DUP1 PUSH2 0x891 DUP2 MSTORE PUSH1 0x20 ADD PUSH2 0xBD2 PUSH2 0x891 SWAP2 CODECOPY PUSH1 0x1 SWAP1 PUSH2 0x4B SWAP1 DUP3 PUSH2 0xFD JUMP JUMPDEST POP CALLVALUE DUP1 ISZERO PUSH2 0x58 JUMPI PUSH1 0x0 DUP1 REVERT JUMPDEST POP PUSH2 0x1BC JUMP JUMPDEST PUSH4 0x4E487B71 PUSH1 0xE0 SHL PUSH1 0x0 MSTORE PUSH1 0x41 PUSH1 0x4 MSTORE PUSH1 0x24 PUSH1 0x0 REVERT JUMPDEST PUSH1 0x1 DUP2 DUP2 SHR SWAP1 DUP3 AND DUP1 PUSH2 0x88 JUMPI PUSH1 0x7F DUP3 AND SWAP2 POP JUMPDEST PUSH1 0x20 DUP3 LT DUP2 SUB PUSH2 0xA8 JUMPI PUSH4 0x4E487B71 PUSH1 0xE0 SHL PUSH1 0x0 MSTORE PUSH1 0x22 PUSH1 0x4 MSTORE PUSH1 0x24 PUSH1 0x0 REVERT JUMPDEST POP SWAP2 SWAP1 POP JUMP JUMPDEST PUSH1 0x1F DUP3 GT ISZERO PUSH2 0xF8 JUMPI PUSH1 0x0 DUP2 DUP2 MSTORE PUSH1 0x20 DUP2 KECCAK256 PUSH1 0x1F DUP6 ADD PUSH1 0x5 SHR DUP2 ADD PUSH1 0x20 DUP7 LT ISZERO PUSH2 0xD5 JUMPI POP DUP1 JUMPDEST PUSH1 0x1F DUP6 ADD PUSH1 0x5 SHR DUP3 ADD SWAP2 POP JUMPDEST DUP2 DUP2 LT ISZERO PUSH2 0xF4 JUMPI DUP3 DUP2 SSTORE PUSH1 0x1 ADD PUSH2 0xE1 JUMP JUMPDEST POP POP POP JUMPDEST POP POP POP JUMP JUMPDEST DUP2 MLOAD PUSH1 0x1 PUSH1 0x1 PUSH1 0x40 SHL SUB DUP2 GT ISZERO PUSH2 0x116 JUMPI PUSH2 0x116 PUSH2 0x5E JUMP JUMPDEST PUSH2 0x12A DUP2 PUSH2 0x124 DUP5 SLOAD PUSH2 0x74 JUMP JUMPDEST DUP5 PUSH2 0xAE JUMP JUMPDEST PUSH1 0x20 DUP1 PUSH1 0x1F DUP4 GT PUSH1 0x1 DUP2 EQ PUSH2 0x15F JUMPI PUSH1 0x0 DUP5 ISZERO PUSH2 0x147 JUMPI POP DUP6 DUP4 ADD MLOAD JUMPDEST PUSH1 0x0 NOT PUSH1 0x3 DUP7 SWAP1 SHL SHR NOT AND PUSH1 0x1 DUP6 SWAP1 SHL OR DUP6 SSTORE PUSH2 0xF4 JUMP JUMPDEST PUSH1 0x0 DUP6 DUP2 MSTORE PUSH1 0x20 DUP2 KECCAK256 PUSH1 0x1F NOT DUP7 AND SWAP2 JUMPDEST DUP3 DUP2 LT ISZERO PUSH2 0x18E JUMPI DUP9 DUP7 ADD MLOAD DUP3 SSTORE SWAP5 DUP5 ADD SWAP5 PUSH1 0x1 SWAP1 SWAP2 ADD SWAP1 DUP5 ADD PUSH2 0x16F JUMP JUMPDEST POP DUP6 DUP3 LT ISZERO PUSH2 0x1AC JUMPI DUP8 DUP6 ADD MLOAD PUSH1 0x0 NOT PUSH1 0x3 DUP9 SWAP1 SHL PUSH1 0xF8 AND SHR NOT AND DUP2 SSTORE JUMPDEST POP POP POP POP POP PUSH1 0x1 SWAP1 DUP2 SHL ADD SWAP1 SSTORE POP JUMP JUMPDEST PUSH2 0x1F1 DUP1 PUSH2 0x1CB PUSH1 0x0 CODECOPY PUSH1 0x0 RETURN INVALID PUSH1 0x80 PUSH1 0x40 MSTORE CALLVALUE DUP1 ISZERO PUSH2 0x10 JUMPI PUSH1 0x0 DUP1 REVERT JUMPDEST POP PUSH1 0x4 CALLDATASIZE LT PUSH2 0x36 JUMPI PUSH1 0x0 CALLDATALOAD PUSH1 0xE0 SHR DUP1 PUSH4 0x2901C02C EQ PUSH2 0x3B JUMPI DUP1 PUSH4 0x66F3DB07 EQ PUSH2 0x59 JUMPI JUMPDEST PUSH1 0x0 DUP1 REVERT JUMPDEST PUSH2 0x43 PUSH2 0x61 JUMP JUMPDEST PUSH1 0x40 MLOAD PUSH2 0x50 SWAP2 SWAP1 PUSH2 0xFC JUMP JUMPDEST PUSH1 0x40 MLOAD DUP1 SWAP2 SUB SWAP1 RETURN JUMPDEST PUSH2 0x43 PUSH2 0xEF JUMP JUMPDEST PUSH1 0x0 DUP1 SLOAD PUSH2 0x6E SWAP1 PUSH2 0x168 JUMP JUMPDEST DUP1 PUSH1 0x1F ADD PUSH1 0x20 DUP1 SWAP2 DIV MUL PUSH1 0x20 ADD PUSH1 0x40 MLOAD SWAP1 DUP2 ADD PUSH1 0x40 MSTORE DUP1 SWAP3 SWAP2 SWAP1 DUP2 DUP2 MSTORE PUSH1 0x20 ADD DUP3 DUP1 SLOAD PUSH2 0x9A SWAP1 PUSH2 0x168 JUMP JUMPDEST DUP1 ISZERO PUSH2 0xE7 JUMPI DUP1 PUSH1 0x1F LT PUSH2 0xBC JUMPI PUSH2 0x100 DUP1 DUP4 SLOAD DIV MUL DUP4 MSTORE SWAP2 PUSH1 0x20 ADD SWAP2 PUSH2 0xE7 JUMP JUMPDEST DUP3 ADD SWAP2 SWAP1 PUSH1 0x0 MSTORE PUSH1 0x20 PUSH1 0x0 KECCAK256 SWAP1 JUMPDEST DUP2 SLOAD DUP2 MSTORE SWAP1 PUSH1 0x1 ADD SWAP1 PUSH1 0x20 ADD DUP1 DUP4 GT PUSH2 0xCA JUMPI DUP3 SWAP1 SUB PUSH1 0x1F AND DUP3 ADD SWAP2 JUMPDEST POP POP POP POP POP DUP2 JUMP JUMPDEST PUSH1 0x1 DUP1 SLOAD PUSH2 0x6E SWAP1 PUSH2 0x168 JUMP JUMPDEST PUSH1 0x0 PUSH1 0x20 DUP1 DUP4 MSTORE DUP4 MLOAD DUP1 DUP3 DUP6 ADD MSTORE PUSH1 0x0 JUMPDEST DUP2 DUP2 LT ISZERO PUSH2 0x129 JUMPI DUP6 DUP2 ADD DUP4 ADD MLOAD DUP6 DUP3 ADD PUSH1 0x40 ADD MSTORE DUP3 ADD PUSH2 0x10D JUMP JUMPDEST POP PUSH1 0x0 PUSH1 0x40 DUP3 DUP7 ADD ADD MSTORE PUSH1 0x40 PUSH32 0xFFFFFFFFFFFFFFFFFFFFFFFFFFFFFFFFFFFFFFFFFFFFFFFFFFFFFFFFFFFFFFE0 PUSH1 0x1F DUP4 ADD AND DUP6 ADD ADD SWAP3 POP POP POP SWAP3 SWAP2 POP POP JUMP JUMPDEST PUSH1 0x1 DUP2 DUP2 SHR SWAP1 DUP3 AND DUP1 PUSH2 0x17C JUMPI PUSH1 0x7F DUP3 AND SWAP2 POP JUMPDEST PUSH1 0x20 DUP3 LT DUP2 SUB PUSH2 0x1B5 JUMPI PUSH32 0x4E487B7100000000000000000000000000000000000000000000000000000000 PUSH1 0x0 MSTORE PUSH1 0x22 PUSH1 0x4 MSTORE PUSH1 0x24 PUSH1 0x0 REVERT JUMPDEST POP SWAP2 SWAP1 POP JUMP INVALID LOG2 PUSH5 0x6970667358 0x22 SLT KECCAK256 SWAP16 0x2B 0xC SLT CALLDATACOPY 0xB7 0x1E SAR OR SLOAD SWAP3 0xF8 0x27 INVALID 0xE6 INVALID MOD EQ STOP 0xD DIV PUSH21 0xC6E020E76CDF1E42DDB164736F6C63430008110033 PUSH10 0x6D706F72742072616E64 PUSH16 0x6D0A66726F6D2073616D696C612E6675 PUSH15 0x6374696F6E7320696D706F72742069 PUSH20 0x5F76616C69645F636F6C6F722061732069735F76 PUSH2 0x6C69 PUSH5 0x5F636F6C6F PUSH19 0xA0A6465662072616E645F636D6170286E6C61 PUSH3 0x656C73 0x2C KECCAK256 PUSH21 0x7970653D27627269676874272C20766572626F7365 RETURNDATASIZE SLOAD PUSH19 0x7565293A0A202020202222220A202020204372 PUSH6 0x617465732061 KECCAK256 PUSH19 0x616E646F6D20636F6C6F726D617020746F2062 PUSH6 0x207573656420 PUSH21 0x6F6765746865722077697468206D6174706C6F746C PUSH10 0x622E2055736566756C20 PUSH7 0x6F72207365676D PUSH6 0x6E746174696F PUSH15 0x207461736B730A202020203A706172 PUSH2 0x6D20 PUSH15 0x6C6162656C733A204E756D62657220 PUSH16 0x66206C6162656C73202873697A65206F PUSH7 0x20636F6C6F726D PUSH2 0x7029 EXP KECCAK256 KECCAK256 KECCAK256 KECCAK256 GASPRICE PUSH17 0x6172616D20747970653A20276272696768 PUSH21 0x2720666F72207374726F6E6720636F6C6F72732C20 0x27 PUSH20 0x6F66742720666F722070617374656C20636F6C6F PUSH19 0x730A202020203A706172616D20766572626F73 PUSH6 0x3A205072696E PUSH21 0x7320746865206E756D626572206F66206C6162656C PUSH20 0x20616E642073686F77732074686520636F6C6F72 PUSH14 0x61702E2054727565206F72204661 PUSH13 0x73650A202020203A7265747572 PUSH15 0x3A20636F6C6F726D617020666F7220 PUSH14 0x6174706C6F746C69620A20202020 0x22 0x22 0x22 EXP KECCAK256 KECCAK256 KECCAK256 KECCAK256 PUSH10 0x6D706F727420636F6C6F PUSH19 0x7379730A20202020696D706F7274206E756D70 PUSH26 0x206173206E700A0A0A2020202069662074797065206E6F742069 PUSH15 0x202827627269676874272C2027736F PUSH7 0x7427293A0A2020 KECCAK256 KECCAK256 KECCAK256 KECCAK256 KECCAK256 KECCAK256 PUSH17 0x72696E74202827506C656173652063686F PUSH16 0x7365202262726967687422206F722022 PUSH20 0x6F66742220666F72207479706527290A20202020 KECCAK256 KECCAK256 KECCAK256 KECCAK256 PUSH19 0x657475726E0A0A20202020696620766572626F PUSH20 0x653A0A20202020202020207072696E7428274E75 PUSH14 0x626572206F66206C6162656C733A KECCAK256 0x27 KECCAK256 0x2B KECCAK256 PUSH20 0x7472286E6C6162656C7329290A0A202020202320 SELFBALANCE PUSH6 0x6E6572617465 KECCAK256 PUSH4 0x6F6C6F72 KECCAK256 PUSH14 0x617020666F722062726967687420 PUSH4 0x6F6C6F72 PUSH20 0x2C206261736564206F6E206873760A2020202069 PUSH7 0x2074797065203D RETURNDATASIZE KECCAK256 0x27 PUSH3 0x726967 PUSH9 0x74273A0A2020202020 KECCAK256 KECCAK256 KECCAK256 PUSH19 0x616E64485356636F6C6F7273203D205B286E70 0x2E PUSH19 0x616E646F6D2E756E69666F726D286C6F773D30 0x2E ADDRESS 0x2C KECCAK256 PUSH9 0x6967683D31292C0A20 KECCAK256 KECCAK256 KECCAK256 KECCAK256 KECCAK256 KECCAK256 KECCAK256 KECCAK256 KECCAK256 KECCAK256 KECCAK256 KECCAK256 KECCAK256 KECCAK256 KECCAK256 KECCAK256 KECCAK256 KECCAK256 KECCAK256 KECCAK256 KECCAK256 KECCAK256 KECCAK256 KECCAK256 KECCAK256 PUSH15 0x702E72616E646F6D2E756E69666F72 PUSH14 0x286C6F773D302E302C2068696768 RETURNDATASIZE BALANCE 0x29 0x2C EXP KECCAK256 KECCAK256 KECCAK256 KECCAK256 KECCAK256 KECCAK256 KECCAK256 KECCAK256 KECCAK256 KECCAK256 KECCAK256 KECCAK256 KECCAK256 KECCAK256 KECCAK256 KECCAK256 KECCAK256 KECCAK256 KECCAK256 KECCAK256 KECCAK256 KECCAK256 KECCAK256 KECCAK256 KECCAK256 KECCAK256 PUSH15 0x702E72616E646F6D2E756E69666F72 PUSH14 0x286C6F773D302E302C2068696768 RETURNDATASIZE BALANCE 0x29 0x29 KECCAK256 PUSH7 0x6F72206920696E KECCAK256 PUSH19 0x616E6765286E6C6162656C73295D0A0A202020 KECCAK256 KECCAK256 KECCAK256 KECCAK256 KECCAK256 0x23 KECCAK256 NUMBER PUSH16 0x6E7665727420485356206C6973742074 PUSH16 0x205247420A202020202020202072616E PUSH5 0x524742636F PUSH13 0x6F7273203D205B5D0A20202020 KECCAK256 KECCAK256 KECCAK256 KECCAK256 PUSH7 0x6F722048535663 PUSH16 0x6C6F7220696E2072616E64485356636F PUSH13 0x6F72733A0A2020202020202020 KECCAK256 KECCAK256 KECCAK256 KECCAK256 PUSH19 0x616E64524742636F6C6F72203D20636F6C6F72 PUSH20 0x79732E6873765F746F5F72676228485356636F6C PUSH16 0x725B305D2C20485356636F6C6F725B31 0x5D 0x2C KECCAK256 BASEFEE MSTORE8 JUMP PUSH4 0x6F6C6F72 JUMPDEST ORIGIN 0x5D 0x29 EXP KECCAK256 KECCAK256 KECCAK256 KECCAK256 KECCAK256 KECCAK256 KECCAK256 KECCAK256 KECCAK256 KECCAK256 KECCAK256 KECCAK256 PUSH10 0x662069735F76616C6964 0x5F PUSH4 0x6F6C6F72 0x28 PUSH19 0x616E64524742636F6C6F72293A0A2020202020 KECCAK256 KECCAK256 KECCAK256 KECCAK256 KECCAK256 KECCAK256 KECCAK256 KECCAK256 KECCAK256 KECCAK256 KECCAK256 PUSH19 0x616E64524742636F6C6F72732E617070656E64 0x28 PUSH19 0x616E64524742636F6C6F72290A0A0A20202020 0x23 KECCAK256 SELFBALANCE PUSH6 0x6E6572617465 KECCAK256 PUSH20 0x6F66742070617374656C20636F6C6F72732C2062 PUSH26 0x206C696D6974696E67207468652052474220737065637472756D EXP KECCAK256 KECCAK256 KECCAK256 KECCAK256 PUSH10 0x662074797065203D3D20 0x27 PUSH20 0x6F6674273A0A20202020202020206C6F77203D20 ADDRESS 0x2E CALLDATASIZE EXP KECCAK256 KECCAK256 KECCAK256 KECCAK256 KECCAK256 KECCAK256 KECCAK256 KECCAK256 PUSH9 0x696768203D20302E39 CALLDATALOAD EXP KECCAK256 KECCAK256 KECCAK256 KECCAK256 KECCAK256 KECCAK256 KECCAK256 KECCAK256 PUSH19 0x616E64524742636F6C6F7273203D206C697374 0x28 PUSH7 0x696C7465722869 PUSH20 0x5F76616C69645F636F6C6F722C205B286E702E72 PUSH2 0x6E64 PUSH16 0x6D2E756E69666F726D286C6F773D6C6F PUSH24 0x2C20686967683D6869676829202A2A20322C0A2020202020 KECCAK256 KECCAK256 KECCAK256 KECCAK256 KECCAK256 KECCAK256 KECCAK256 KECCAK256 KECCAK256 KECCAK256 KECCAK256 KECCAK256 KECCAK256 KECCAK256 KECCAK256 KECCAK256 KECCAK256 KECCAK256 KECCAK256 KECCAK256 KECCAK256 PUSH15 0x702E72616E646F6D2E756E69666F72 PUSH14 0x286C6F773D6C6F772C2068696768 RETURNDATASIZE PUSH9 0x69676829202A2A2032 0x2C EXP KECCAK256 KECCAK256 KECCAK256 KECCAK256 KECCAK256 KECCAK256 KECCAK256 KECCAK256 KECCAK256 KECCAK256 KECCAK256 KECCAK256 KECCAK256 KECCAK256 KECCAK256 KECCAK256 KECCAK256 KECCAK256 KECCAK256 KECCAK256 KECCAK256 KECCAK256 KECCAK256 KECCAK256 KECCAK256 KECCAK256 PUSH15 0x702E72616E646F6D2E756E69666F72 PUSH14 0x286C6F773D6C6F772C2068696768 RETURNDATASIZE PUSH9 0x69676829202A2A2032 0x29 KECCAK256 PUSH7 0x6F72206920696E KECCAK256 PUSH19 0x616E6765286E6C6162656C73295D29290A0A0A KECCAK256 KECCAK256 KECCAK256 KECCAK256 PUSH7 0x6F7220636F6C6F PUSH19 0x20696E2072616E64524742636F6C6F72733A0A KECCAK256 KECCAK256 KECCAK256 KECCAK256 KECCAK256 KECCAK256 KECCAK256 KECCAK256 PUSH10 0x66206C656E28636F6C6F PUSH19 0x2920213D20333A0A2020202020202020202020 KECCAK256 PUSH19 0x616E64524742636F6C6F72732E72656D6F7665 0x28 PUSH4 0x6F6C6F72 0x29 EXP EXP KECCAK256 KECCAK256 KECCAK256 KECCAK256 PUSH19 0x657475726E2072616E64524742636F6C6F7273 EXP EXP EXP PUSH5 0x6566206765 PUSH21 0x5F72616E646F6D5F636D6170286C656E6774683D32 ADDRESS 0x29 GASPRICE EXP KECCAK256 KECCAK256 KECCAK256 KECCAK256 PUSH15 0x65775F636D6170203D2072616E645F PUSH4 0x6D617028 PUSH10 0x6E74286C656E6774682F ORIGIN 0x29 0x2C KECCAK256 PUSH21 0x7970653D72616E646F6D2E63686F696365285B2773 PUSH16 0x6674272C2027627269676874275D2929 EXP KECCAK256 KECCAK256 KECCAK256 KECCAK256 PUSH15 0x65775F636D6170203D206E65775F63 PUSH14 0x6170202B2072616E645F636D6170 0x28 PUSH10 0x6E74286C656E6774682F CALLDATALOAD 0x29 0x2C KECCAK256 PUSH21 0x7970653D72616E646F6D2E63686F696365285B2773 PUSH16 0x6674272C2027627269676874275D2929 EXP KECCAK256 KECCAK256 KECCAK256 KECCAK256 PUSH19 0x616E646F6D2E73687566666C65286E65775F63 PUSH14 0x6170290A2020202072657475726E KECCAK256 PUSH15 0x65775F636D61700A66726F6D205049 0x4C KECCAK256 PUSH10 0x6D706F727420496D6167 PUSH6 0xA696D706F72 PUSH21 0x206D6174682C2072616E646F6D0A66726F6D207361 PUSH14 0x696C6120696D706F72742047656E PUSH6 0x726174697665 0x49 PUSH14 0x6167652C2050726F6A656374696F PUSH15 0xA696D706F7274206F730A66726F6D KECCAK256 PUSH4 0x6D61705F PUSH22 0x74696C7320696D706F7274206765745F72616E646F6D 0x5F PUSH4 0x6D61700A PUSH7 0x726F6D20636F6E PUSH20 0x74616E747320696D706F727420454C454D454E54 MSTORE8 EXP EXP EXP PUSH5 0x6566206631 0x28 PUSH25 0x2C2079293A0A20202020726573756C74203D2072616E646F6D 0x2E PUSH22 0x6E69666F726D282D312C3129202A20782A2A3220202D KECCAK256 PUSH14 0x6174682E73696E28792A2A322920 0x2B KECCAK256 PUSH2 0x6273 0x28 PUSH26 0x2D78290A2020202072657475726E20726573756C740A0A646566 KECCAK256 PUSH7 0x3228782C207929 GASPRICE EXP KECCAK256 KECCAK256 KECCAK256 KECCAK256 PUSH19 0x6573756C74203D2072616E646F6D2E756E6966 PUSH16 0x726D282D312C3129202A20792A2A3320 0x2D KECCAK256 PUSH14 0x6174682E636F7328782A2A322920 0x2B KECCAK256 ORIGIN 0x2A PUSH25 0xA2020202072657475726E20726573756C740A0A0A64656620 PUSH8 0x65745F696D616765 0x28 PUSH20 0x656564732C20736176655F746F5F666F6C646572 0x2C KECCAK256 PUSH4 0x6F6C6F72 PUSH20 0x293A0A202020202222222046756C6C7920646574 PUSH6 0x726D696E6973 PUSH21 0x69632066756E6374696F6E20666F7220726570726F PUSH5 0x756369626C PUSH26 0x2067656E65726174696E6720612073696E676C650A2020202020 KECCAK256 KECCAK256 KECCAK256 COINBASE PUSH21 0x6F6D6963204E465420504E472066726F6D2061206C PUSH10 0x7374206F662072616E64 PUSH16 0x6D2073656564732E202222220A202020 KECCAK256 PUSH16 0x732E73797374656D28226D6B64697220 0x2D PUSH17 0x2025732220252028736176655F746F5F66 PUSH16 0x6C64657229290A202020206F70656E28 0x22 0x25 PUSH20 0x2F646174612220252028736176655F746F5F666F PUSH13 0x646572292C20277727292E7772 PUSH10 0x7465282225735C6E2573 0x22 KECCAK256 0x25 KECCAK256 0x28 PUSH20 0x7472287365656473292C2073747228636F6C6F72 PUSH20 0x2929290A20202020666F7220736565645F696E64 PUSH6 0x7820696E2072 PUSH2 0x6E67 PUSH6 0x286C656E2873 PUSH6 0x65647329293A EXP KECCAK256 KECCAK256 KECCAK256 KECCAK256 KECCAK256 KECCAK256 KECCAK256 KECCAK256 0x23 KECCAK256 SELFBALANCE PUSH6 0x6E6572617465 KECCAK256 PUSH4 0x6F6D706F PUSH15 0x656E7420696D616765732C206F6E65 KECCAK256 PUSH7 0x6F722065616368 KECCAK256 PUSH20 0x6565642E2053617665206561636820636F6D706F PUSH15 0x656E74206C6F63616C6C792E0A2020 KECCAK256 KECCAK256 KECCAK256 KECCAK256 KECCAK256 KECCAK256 PUSH20 0x656564203D2073656564735B736565645F696E64 PUSH6 0x785D0A202020 KECCAK256 KECCAK256 KECCAK256 KECCAK256 KECCAK256 PUSH8 0x203D2047656E6572 PUSH2 0x7469 PUSH23 0x65496D6167652866312C206632290A2020202020202020 PUSH8 0x2E67656E65726174 PUSH6 0x28736565643D PUSH20 0x656564290A20202020202020207072696E742822 SSTORE PUSH20 0x696E67222C20636F6C6F72735B736565645F696E PUSH5 0x65785D290A KECCAK256 KECCAK256 KECCAK256 KECCAK256 KECCAK256 KECCAK256 KECCAK256 KECCAK256 PUSH8 0x2E706C6F74287072 PUSH16 0x6A656374696F6E3D50726F6A65637469 PUSH16 0x6E2E504F4C41522C20636F6C6F723D63 PUSH16 0x6C6F72735B736565645F696E6465785D 0x2C KECCAK256 PUSH3 0x67636F PUSH13 0x6F723D227472616E7370617265 PUSH15 0x7422290A2020202020202020672E73 PUSH2 0x7665 0x5F PUSH10 0x6D616765282725732F73 PUSH6 0x65645F25645F 0x25 PUSH20 0x2E706E672720252028736176655F746F5F666F6C PUSH5 0x65722C2073 PUSH6 0x65645F696E64 PUSH6 0x782C20736565 PUSH5 0x292C206465 PUSH17 0x74683D36290A0A2020202023204D657267 PUSH6 0x20636F6D706F PUSH15 0x656E747320696E746F20612073696E PUSH8 0x6C65207472616E73 PUSH17 0x6172656E7420504E470A20202020626163 PUSH12 0x67726F756E64203D20496D61 PUSH8 0x652E6F70656E2827 0x25 PUSH20 0x2F736565645F305F25732E706E67272025202873 PUSH2 0x7665 0x5F PUSH21 0x6F5F666F6C6465722C2073656564735B305D29290A KECCAK256 KECCAK256 KECCAK256 KECCAK256 PUSH7 0x6F722073656564 0x5F PUSH10 0x6E64657820696E207261 PUSH15 0x676528312C206C656E287365656473 0x29 0x29 GASPRICE EXP KECCAK256 KECCAK256 KECCAK256 KECCAK256 KECCAK256 KECCAK256 KECCAK256 KECCAK256 PUSH7 0x6F726567726F75 PUSH15 0x64203D20496D6167652E6F70656E28 0x22 0x25 PUSH20 0x2F736565645F25645F25732E706E672220252028 PUSH20 0x6176655F746F5F666F6C6465722C20736565645F PUSH10 0x6E6465782C2073656564 PUSH20 0x5B736565645F696E6465785D29290A2020202020 KECCAK256 KECCAK256 KECCAK256 PUSH3 0x61636B PUSH8 0x726F756E642E7061 PUSH20 0x746528666F726567726F756E642C2028302C2030 0x29 0x2C KECCAK256 PUSH7 0x6F726567726F75 PUSH15 0x64290A202020206261636B67726F75 PUSH15 0x642E73617665282225732F66696E61 PUSH13 0x5F6E66742E706E672220252028 PUSH20 0x6176655F746F5F666F6C64657229290A20202020 PUSH17 0x72696E742822536176656420636F6D706C PUSH6 0x7465204E4654 KECCAK256 PUSH21 0x6F2025732220252028736176655F746F5F666F6C64 PUSH6 0x7229290A0A0A 0x23 KECCAK256 PUSH9 0x617264636F64656420 PUSH20 0x656564203D2064657465726D696E697374696320 PUSH8 0x656E65726174696F PUSH15 0xA6D61696E5F72616E646F6D203D20 PUSH19 0x616E646F6D2E52616E646F6D28363934323029 EXP 0x23 KECCAK256 PUSH8 0x656E657261746520 BALANCE PUSH12 0x20636F6E7472616374730A66 PUSH16 0x72206E66745F6E756D20696E2072616E PUSH8 0x6528302C20323030 0x29 GASPRICE EXP KECCAK256 KECCAK256 KECCAK256 KECCAK256 PUSH5 0x6570746820 RETURNDATASIZE KECCAK256 PUSH10 0x6E74286D61696E5F7261 PUSH15 0x646F6D2E72616E646F6D2829202A20 CODESIZE 0x29 KECCAK256 0x2B KECCAK256 BALANCE EXP KECCAK256 KECCAK256 KECCAK256 KECCAK256 PUSH17 0x72696E7428224465707468222C20646570 PUSH21 0x68290A202020207365656473203D205B5D0A202020 KECCAK256 PUSH4 0x686F7365 PUSH15 0x5F636F6C6F7273203D205B5D0A2020 KECCAK256 KECCAK256 PUSH7 0x6F72206920696E KECCAK256 PUSH19 0x616E676528302C206465707468293A0A202020 KECCAK256 KECCAK256 KECCAK256 KECCAK256 KECCAK256 PUSH20 0x656564203D20696E742831303030303030303030 ADDRESS ADDRESS ADDRESS ADDRESS ADDRESS ADDRESS ADDRESS ADDRESS ADDRESS ADDRESS ADDRESS ADDRESS ADDRESS ADDRESS ADDRESS ADDRESS ADDRESS ADDRESS ADDRESS ADDRESS ADDRESS ADDRESS ADDRESS ADDRESS ADDRESS ADDRESS ADDRESS ADDRESS ADDRESS ADDRESS ADDRESS ADDRESS ADDRESS ADDRESS ADDRESS ADDRESS ADDRESS KECCAK256 0x2A KECCAK256 PUSH14 0x61696E5F72616E646F6D2E72616E PUSH5 0x6F6D282929 EXP KECCAK256 KECCAK256 KECCAK256 KECCAK256 KECCAK256 KECCAK256 KECCAK256 KECCAK256 PUSH20 0x656564732E617070656E642873656564290A2020 KECCAK256 KECCAK256 KECCAK256 KECCAK256 KECCAK256 KECCAK256 PUSH4 0x686F7365 PUSH15 0x5F636F6C6F72732E617070656E6428 PUSH19 0x616E646F6D2E52616E646F6D2873656564292E PUSH4 0x686F6963 PUSH6 0x28454C454D45 0x4E SLOAD MSTORE8 0x29 0x29 EXP KECCAK256 KECCAK256 KECCAK256 KECCAK256 KECCAK256 KECCAK256 KECCAK256 KECCAK256 PUSH14 0x61696E5F72616E646F6D203D2072 PUSH2 0x6E64 PUSH16 0x6D2E52616E646F6D2873656564290A20 KECCAK256 KECCAK256 KECCAK256 PUSH8 0x65745F696D616765 0x28 PUSH20 0x656564732C20226E6674732F61746F6D69635F6E PUSH7 0x74735F25642220 0x25 KECCAK256 0x28 PUSH15 0x66745F6E756D292C2063686F73656E 0x5F PUSH4 0x6F6C6F72 PUSH20 0x290A0A202020207072696E74282246696E697368 PUSH6 0x64204E465422 0x2C KECCAK256 PUSH15 0x66745F6E756D290A00000000000000 "},"methodIdentifiers":{"sourceCodeAtomicNftPy()":"66f3db07","sourceCodeCmapUtilsPy()":"2901c02c"}}}}}